:020000040800F2
:1000000088080020BD630008190200081B020008D0
:100010001F02000823020008270200080000000059
:100020000000000000000000000000002B0200089B
:100030002D020008000000002F0200089D010008AA
:10004000D7630008D7630008D7630008D7630008A8
:10005000D7630008D7630008D7630008D763000898
:10006000D7630008D7630008D7630008D763000888
:10007000D7630008D7630008D7630008D763000878
:1000800009280008D7630008D76300083F1D00084F
:100090005B1D0008D7630008D7630008B113000890
:1000A000D7630008D7630008D7630008D763000848
:1000B000D7630008D7630008D7630008D763000838
:1000C000D7630008D7630008D7630008D763000828
:1000D000D7630008AB230008D7630008D763000884
:1000E000D7630008D7630008D7630008D763000808
:1000F000D7630008D7630008D7630008D7630008F8
:10010000D7630008D7630008D7630008D7630008E7
:10011000D7630008D7630008D3240008D76300081A
:10012000D7630008D7630008D7630008D7630008C7
:10013000D7630008D7630008D7630008D7630008B7
:10014000D7630008D7630008D7630008D7630008A7
:10015000FD230008D7630008D7630008D7630008B1
:10016000D7630008D7630008D7630008D763000887
:10017000D7630008D7630008D7630008D763000877
:10018000D7630008D7630008DFF80CD007F0A2F9A6
:10019000004800470D09000888080020244800781E
:1001A000012838D123480088401C2249088008468D
:1001B0000088B0F5FA7F01DD012008801D4908881C
:1001C00000EBD0714910A0EB410111B901201A498F
:1001D0000870184800880A2190FBF1F201FB120018
:1001E00010B901201549087012480088642190FB5D
:1001F000F1F201FB120010B90120114908700D48FD
:1002000000884FF4FA7190FBF1F201FB120010B973
:1002100001200C4908707047704700BFFEE700BF1F
:10022000FEE700BFFEE700BFFEE77047704770477C
:100230000600002000000020020000200300002033
:10024000040000200500002070B586B004460D466D
:1002500016464FF40070019000208DF80C008DF8C8
:100260000D0008208DF80E00200A8DF80F008DF883
:100270001040290A8DF811108DF81250310A8DF8AE
:1002800013108DF8146000218DF815108DF81610DC
:1002900001A9FA4805F01CF806B070BD2DE9F04739
:1002A00006460F46DFF8D8934FF0000A002130468B
:1002B00006F0C0FF01D2304601E086F000408046E3
:1002C00006F067FF04460022134606F075FF00D2D1
:1002D0000026EC484068EB4908603946304606F095
:1002E00006FDE84948600A461168506806F0FCFCC3
:1002F0008046002106F0FEFC0446E2494868E049D9
:1003000006F0F8FC0546214606F09CFCDE49086034
:10031000DE49DD48006806F08DFF02D2DB48DA498D
:100320000860DB49D848006806F07AFF02D2D84856
:10033000D5490860D448006880F00040BDE8F087E7
:100340002DE9F84F04460D46DFF848834FF00009C9
:100350004FF0000AD0484068CF490860294620463F
:1003600006F0C5FCCC49486008464168CB480068A7
:1003700006F068FCC9490860C74A1168506806F071
:10038000B3FC8346002106F0B5FC06460021C348B5
:10039000006806F0AFFC8346BF494868414606F056
:1003A000A9FC5946009006F04DFC0746314606F080
:1003B00049FCBB490860B549B948006806F03AFFF6
:1003C00002D2B248B6490860B149B548006806F0A3
:1003D00027FF02D2AE48B2490860B1480068BDE8C4
:1003E000F88F2DE9F04706460F46DFF894924FF05C
:1003F000000A0021304606F01DFF01D2304601E020
:1004000086F00040804606F0C4FE044600221346F3
:1004100006F0D2FE00D20026A2484068A14908603A
:100420003946304606F063FC9E4948600A4611682A
:10043000506806F059FC8046002106F05BFC04463B
:10044000984948688E4906F055FC0546214606F055
:10045000F9FB954908608D499348006806F0EAFE6B
:1004600002D28A489049086089498F48006806F09E
:10047000D7FE02D286488C4908608B48006880F01D
:100480000040BDE8F0872DE9F84F04460D46DFF83F
:100490001C824FF000094FF07C5A8548406884491F
:1004A00008600846806848602946204606F01FFC20
:1004B0007F4988600A465168906806F015FC8346BB
:1004C000514606F017FC064679498868002106F077
:1004D00011FC834676498868414606F00BFC594674
:1004E000009006F0AFFB0746314606F0ABFB7149C2
:1004F000086066496F48006806F09CFE02D26348B7
:100500006C49086062496B48006806F089FE02D2B7
:100510005F48684908606748006880F00040BDE8AF
:10052000F88F2DE9F05F82466348006806F0F9FD18
:100530000FFA80FBBAF5257F03DD4FF42570BDE887
:10054000F09F1AF5257F01DA5C48F8E7BAF1000F51
:1005500012DB504606F0D4FD804600224FF0804367
:1005600007F08EFB06460022554B06F04CFD044674
:1005700006F0F0FD00B2E2E7504606F0C1FD064687
:1005800000224FF0804307F07BFB044600224D4BD6
:1005900006F039FD804606F0DDFD00B2CFE74A4A9D
:1005A000528A042A04D10288143A12B202805BE013
:1005B000454A528A082A04D10288143212B20280B3
:1005C00052E0414A528A012A04D10A88143212B2F6
:1005D0000A8049E03C4A528A022A04D10A88143A25
:1005E00012B20A8040E0384A528A052A08D10A88A5
:1005F000143212B20A800288143A12B2028033E036
:10060000314A528A0A2A08D10A88143A12B20A8058
:100610000288143212B2028026E02B4A528A092A3A
:1006200008D10A88143212B20A800288143212B237
:10063000028019E0244A528A062A08D10A88143A0C
:1006400012B20A800288143A12B202800CE01F4AE9
:100650001288521C1D4B1A801A461288142A03DD78
:1006600000221A8002800A80B0F90020B2F5257FAE
:100670002EDD4FF42572028032E00000006400405D
:1006800000004842140000201C0000200000254407
:10069000000025C40000A441200000202C00002000
:1006A0002800002030000020380000207B14F0419A
:1006B000CC0000203C000020080000206CFDFFFF63
:1006C00000A0844000A084C0E4010020400000207D
:1006D000B0F9002012F5257F02DA4FF66C52028045
:1006E000B1F90020B2F5257F03DD4FF425720A80B1
:1006F00007E0B1F9002012F5257F02DA4FF66C52BF
:100700000A8070472DE9F04177497848FFF747FFA5
:1007100077480088A0F5806074490988084404B2CD
:1007200073488088A0F580604FF4FA7190FBF1F86F
:10073000404606F0D7FC0746314606F083FA0646E7
:100740006B484088A0F5806067490988084405B275
:10075000281906F0C7FC8046314606F073FA0746B2
:1007600006F0DFFC00B263490880281B06F0BAFCE3
:100770008046314606F066FA074606F0D2FC00B223
:100780005D490880281B06F0ADFC8046314606F026
:10079000ABFA074606F0C5FC00B258490880281994
:1007A00006F0A0FC8046314606F09EFA074606F0A9
:1007B000B8FC00B252490880BDE8F08170B54C48E1
:1007C000407A022803D04A48407A03285CD180212D
:1007D0004C4805F05DFAFFF795FF49480088404214
:1007E00000B2FFF79EFE044600EBD470411046486D
:1007F0000078401C91FBF0F005B22A4641F28831A6
:10080000442001F08DFB3B48B0F90000FFF789FE62
:10081000044600EBD47041103B480078401C91FB2B
:10082000F0F005B22A4641F28831142001F078FB3D
:100830003148B0F90000FFF774FE044600EBD470B5
:10084000411031480078401C91FBF0F005B22A4677
:1008500041F28831242001F063FB2848008840429F
:1008600000B2FFF75EFE044600EBD470411026484C
:100870000078401C91FBF0F005B22A4641F2883125
:10088000342001F04DFB03E080211E4805F0FEF905
:1008900070BD10B51648007C012803D01448007ABA
:1008A000012816D11248407A022812D14007406B25
:1008B00000F5FA7040F6C411B0FBF1F201FB120032
:1008C000090748630020886340210E4805F0E0F9DD
:1008D00008E040F6C41001074863886340210948D6
:1008E00005F0D4F910BD00004400002042000020B3
:1008F000E40100200C0000200E0000201000002069
:10090000120000200000024048000020002475482A
:1009100000684FF47A72B0FBF2F1481EB0F1807FAC
:1009200001D301201BE0481E4FF0E0225061501718
:100930000F22002807DA13071E0E6B4B00F00F057D
:100940002D1F5E5503E013071D0E684B1D5400BF9D
:1009500000204FF0E022906107201061002008B1D4
:1009600000BFFEE701F04EF94FF4FA7001F062FDAE
:100970000BE0641C0A2C08DD06E080215C4805F0D1
:1009800090F9322001F056FDF7E700F0C9F8FF2892
:10099000EFD000F01CFA00F09FFC01F08BFD4FF44B
:1009A0007A70C106486388634021514805F06EF9AA
:1009B000002001F0E4F94FF47A7001F03BFD33219F
:1009C000012001F008FA4FF4FA7001F033FD0D2216
:1009D0004849494803F0E4F803F023F90120474966
:1009E00008707EE04648007820B100204449087035
:1009F00002F0BBFC4348007860B14348807C00F0C3
:100A0000100010B1012041490870FFF7D7FE002007
:100A10003C4908703E480078002849D03D4800789D
:100A2000401C3C4908700020394908703949087851
:100A300000EBD0714910A0EB410121B140212C48BD
:100A400005F026F903E04021294805F01FF9314857
:100A50000078052804DD00202E49087003F009F90C
:100A60002948007C012803D02748007A012816D1A4
:100A70002548407A022812D14007406B00F5967055
:100A800040F6C411B0FBF1F201FB12000907486304
:100A9000002088634021164805F0FAF808E040F687
:100AA000C4100107486388634021114805F0EEF83F
:100AB00019480078A8B10020174908701348007839
:100AC00078B100201149087014480078401C13497F
:100AD0000870087800EBD0714910A0EB41010F4A73
:100AE00011707FE7B000002018ED00E000E400E0A6
:100AF000000002404C03002004000C080600002007
:100B00000200002003000020E40100204900002032
:100B100004000020540000200500002048000020B0
:100B200008B50020009000F02FFA00F014FA01231D
:100B30006A467521D02000F059FB40B99DF80000AD
:100B4000682809D0D4A006F0D7FCFF2008BDD5A0A6
:100B500006F0D2FCFF20F9E701226B21D02000F043
:100B600017FBFF2804D1D2A006F0C6FCFF20EDE75A
:100B700007221921D02000F00BFBFF2804D1CFA0C1
:100B800006F0BAFCFF20E1E700221A21D02000F095
:100B9000FFFAFF2804D1CCA006F0AEFCFF20D5E779
:100BA00008221B21D02000F0F3FAFF2804D1C9A0AD
:100BB00006F0A2FCFF20C9E708221C21D02000F08B
:100BC000E7FAFF2804D1C6A006F096FCFF20BDE797
:100BD00000223721D02000F0DBFAFF2804D1C3A087
:100BE00006F08AFCFF20B1E701223821D02000F076
:100BF000CFFAFF2804D1C0A006F07EFCFF20A5E7B5
:100C00000020A3E72DE9FF470E236A463B21D020B1
:100C100000F0ECFAFF2806D1BAA006F06DFCFF2028
:100C200004B0BDE8F0879DF801009DF8001040EA8F
:100C3000012000B2B64908809DF803009DF802101B
:100C400040EA012000B2B24948809DF805009DF8B5
:100C5000041040EA012000B2AD4988809DF80700E9
:100C60009DF8061040EA012000B2A949C8809DF80D
:100C700009009DF8081040EA012000B2A44908814B
:100C80009DF80B009DF80A1040EA012000B2A0492F
:100C900048819DF80D009DF80C1040EA012000B23B
:100CA0009B498881B1F9000006F01CFA80F00044ED
:100CB000204606F06EFA07460022964B06F0A3F98E
:100CC000054606F091FA944908609149B1F902008D
:100CD00006F008FA80F00044204606F05AFA07466B
:100CE00000228C4B06F08FF9054606F07DFA8A4902
:100CF00048608749B1F9040006F0F4F9804606F02F
:100D000048FA06460022834B06F07DF9044606F0B9
:100D10006BFA814988607E49B1F9060006F0E2F974
:100D2000824606F036FA804600227C4B06F06BF9CC
:100D300006467B4A7B4B06F04DF8044606F054FA13
:100D40007549C8607249B1F90810774A1268881A63
:100D500006F0C8F980F00044204606F01AFA07466B
:100D60000022724B06F04FF9054606F03DFA6A493B
:100D700008616749B1F90A106D4A1268881A06F0CD
:100D8000B1F980F00044204606F003FA074600223D
:100D9000664B06F038F9054606F026FA5E494861CA
:100DA0005B49B1F90C10634A1268881A06F09AF987
:100DB000804606F0EEF9064600225C4B06F023F969
:100DC000044606F011FA54498861002028E72DE90D
:100DD000F05F4FF00009CA46CB46002424E0FFF73D
:100DE00011FF012001F026FB4949B1F9080006F086
:100DF00079F90546494605F025FF81464449B1F990
:100E00000A0006F06FF90546514605F01BFF8246C1
:100E10003F49B1F90C0006F065F90546594605F061
:100E200011FF8346601C84B2B4F57A7FD7DB484655
:100E300006F0AFF9074600223F4B06F0E4F80546FE
:100E400006F0D2F98146504606F0A3F90746002283
:100E5000394B06F0D8F8054606F0C6F982465846E2
:100E600006F097F905460022334B06F0CCF807460A
:100E700006F0BAF98346484606F053F92A49086055
:100E8000504606F04EF92A490860584606F049F9DE
:100E900028490860BDE8F09F6572726F7220314189
:100EA0000D0A00006572726F722031420D0A000057
:100EB0006572726F722031430D0A00006572726FA5
:100EC000722031440D0A00006572726F7220314544
:100ED0000D0A00006572726F722031460D0A000023
:100EE0006572726F722031470D0A00006572726F71
:100EF000722031480D0A00006572726F722031490C
:100F00000D0A00006572726F7220314A0D0A0000EE
:100F1000D80000200000C040E800002000407540DC
:100F2000A4703D0AD7434240580000200060504062
:100F30005C0000206000002000408F4010B50021C0
:100F400006E0062200BF1300A2F10102FBD1491CFA
:100F50008142F6D310BD1CB50121022003F0E8FE4A
:100F60001020009001208DF8040000208DF806006C
:100F700003208DF805006946C14804F00BFE1021DE
:100F8000BF4804F085FE1CBD1CB50121022003F002
:100F9000CFFEC020009001208DF804008DF80600DF
:100FA00003208DF805006946B54804F0F3FD1CBD2B
:100FB0001CB58020009001208DF804008DF80600FB
:100FC00003208DF805006946AD4804F0E3FD1CBD23
:100FD0001CB58020009000208DF804008DF80600DC
:100FE0008DF8070002208DF805006946A44804F03A
:100FF000D1FD1CBD10B5FFF7DBFF8021A04804F038
:1010000045FE40219E4804F041FE0120FFF796FF77
:1010100080219B4804F03CFE0120FFF78FFF402118
:10102000974804F035FE10BD10B5FFF7C1FF402111
:10103000934804F02DFE8021914804F029FE012000
:10104000FFF77CFF40218E4804F020FE80218C4871
:1010500004F01CFE0120FFF771FF10BD10B504461F
:10106000FFF7A6FF24B18021854804F00FFE03E0BE
:101070008021834804F00CFE4021814804F006FEE4
:101080000120FFF75BFF40217D4804F001FE0120B5
:10109000FFF754FF10BD10B54FF47A7480217848E3
:1010A00004F0F4FDFFF794FF0120FFF747FF402114
:1010B000734804F0EBFD0120FFF740FF0AE0601EDB
:1010C00080B2040006D0FFF7AFFF6EA006F014FA5E
:1010D000FF2010BD80216A4804F0BEFD0028EED13B
:1010E0004021674804F0D4FD0020F2E770B50446C3
:1010F000FFF75EFF4021624804F0CAFD00251DE0B5
:1011000004F0800020B180215D4804F0BFFD03E0C1
:1011100080215B4804F0BCFD6006040E0120FFF74F
:101120000DFF4021564804F0B1FD0120FFF706FFF6
:101130004021534804F0ACFD681CC5B2082DDFDB2C
:1011400070BD70B50024FFF743FF002518E0402173
:101150004B4804F09DFD0120FFF7F0FE4021484878
:1011600004F094FD6006040E8021454804F074FDEF
:1011700008B1601CC4B20120FFF7E0FE681CC5B2D4
:10118000082DE4DB40213E4804F082FD204670BD7E
:1011900070B506460C461546FFF72CFF3046FFF7A4
:1011A000A5FFFFF778FFFF2804D139A006F0A4F9C6
:1011B000FF2070BD2046FFF799FFFFF76CFFFF2867
:1011C00004D136A006F098F9FF20F2E72846FFF791
:1011D0008DFFFFF760FFFF2804D133A006F08CF9E4
:1011E000FF20E6E7FFF720FF0020E2E72DE9F041CE
:1011F00006460F4614469846FFF7FCFE3046FFF7BA
:1012000075FFFFF748FFFF2805D12AA006F074F903
:10121000FF20BDE8F0813846FFF768FFFFF73BFF8E
:10122000FF2804D126A006F067F9FF20F1E7FFF7B9
:10123000E1FE711CC8B2FFF759FFFFF72CFFFF2832
:1012400004D122A006F058F9FF20E2E7002508E0CB
:10125000FFF777FF20700020FFF700FF641C681C79
:10126000C5B2A8F10100A842F2DCFFF76AFF2070C6
:101270000120FFF7F3FEFFF7D7FE0020C9E70000CB
:10128000000402406572726F722032410D0A000044
:101290006572726F722032420D0A00006572726FC1
:1012A000722032430D0A00006572726F7220324460
:1012B0000D0A00006572726F722032460D0A00003E
:1012C0006572726F722032470D0A00006572726F8C
:1012D000722032480D0A000000B585B00121880354
:1012E00003F06AFD0121022003F022FD202003907B
:1012F00000208DF810008DF8120001208DF81300E9
:1013000002208DF8110003A93A4804F043FC05219E
:10131000012004F01BFF2020009000208DF8040025
:101320000C208DF8050001208DF80600684604F0B9
:1013300043FB17208DF8080000208DF809008DF878
:101340000A0001208DF80B0002A802F0AEFC05B0E7
:1013500000BD1FB50121880303F02EFD01210846C1
:1013600003F0E6FC4FF48070029000208DF80C0032
:101370008DF80E0001208DF80F0002208DF80D0071
:1013800002A91D4804F006FC0821002004F0DEFE3E
:101390004FF48070009000208DF804000C208DF830
:1013A000050001208DF80600684604F005FB1FBD0E
:1013B00010B5202004F066FB012809D1FFF722FCBC
:1013C00000F01CF8202004F059FB202004F06BFBF7
:1013D0004FF4807004F056FB012809D1FFF712FC8E
:1013E0004FF4807004F04AFB4FF4807004F05BFB14
:1013F00010BD000000040240000002402DE9F84F3B
:10140000002400250026A146FE480068B8B9012046
:10141000FC49086000BF0FE0FB480088FB4921F849
:101420001400F9484088FA4921F81400F6488088E9
:10143000F84921F81400641C0A2CEDD31FE0F2488F
:101440000088F249F44A126821F81200EE484088F8
:10145000EF49F14A126821F81200EB488088ED4903
:10146000ED4A126821F81200EB480068401CEA4976
:101470000860084600680A2801D10020086000249E
:101480000CE0E24830F914000544E14830F914005A
:101490000644E04830F914008144641C0A2CF0D35F
:1014A000284605F01FFE009005F073FE82460022DC
:1014B000DA4B05F0A8FD074605F096FED84908600E
:1014C000304605F00FFE009005F063FE82460022D4
:1014D000D24B05F098FD074605F086FED0494860DE
:1014E000484605F0FFFD009005F053FE82460022BD
:1014F000CA4B05F088FD074605F076FEC8498860AE
:10150000C849086905F045FE8246C74AC74B05F041
:1015100008FD074605F068FEC5490860C1494869ED
:1015200005F037FE0746C04AC04B05F0FAFC82467C
:1015300005F05AFEBE494860BA49886905F029FE9F
:101540000746B94AB94B05F0ECFC824605F04CFE63
:10155000B7498860BDE8F88F0FB59FB0B5481D90BA
:1015600000201C90B4481B90B448006805F011FEA0
:10157000B34AB44BCDE9060105F0D3FCCDE90A012D
:10158000229805F006FEB04AB04BCDE9060105F001
:10159000C8FCCDE90801DDE90A2305F01BFCCDE913
:1015A0000C0105F021FE2290A44922980860A84869
:1015B000006805F0EEFDA24AA24BCDE9060105F058
:1015C000B0FCCDE90A01249805F0E3FD9E4A9F4B4B
:1015D000CDE9060105F0A5FCCDE90801DDE90A2306
:1015E00005F0F8FBCDE90C0105F0FEFD24909849CB
:1015F000249808609748006805F0CBFD904A914B0D
:10160000CDE9060105F08DFCCDE90A01259805F02C
:10161000C0FD8D4A8D4BCDE9060105F082FCCDE978
:101620000801DDE90A2305F0D5FBCDE90C0105F041
:10163000DBFD25908749259808602599084605F027
:1016400059FB08902499084605F054FB069022990E
:10165000084605F04FFB0590069905F0F3FA079050
:10166000089905F0EFFA099005F093FDCDE90A011C
:1016700006F0E2FFCDE90C0105F0B6FD1A901A99CB
:10168000229805F069FB13901A99249805F064FBE1
:1016900012901A99259805F05FFB11906E48016829
:1016A0006E48006805F026FB0C906D4801686D4897
:1016B000006805F01FFB0B900C9905F015FB4FF02F
:1016C00080410D9005F016FB19906548016862484D
:1016D000006805F00FFB0C90624801685F480068E5
:1016E00005F008FB0B900C9905F0ACFA4FF0804127
:1016F0000D9005F0FFFA189059480168006805F050
:10170000F9FA0D9054480168006805F0F3FA0B905F
:1017100054480168006805F0EDFA09904F480168E7
:10172000006805F0E7FA0890099905F0DDFA0A90DB
:101730000B9905F0D9FA0C900D9905F083FA1790E2
:101740001899119805F0D6FA0D901799129805F08E
:10175000D1FA0C900D9905F0C7FA169017991398C5
:1017600005F0C8FA0D901999119805F0C3FA0C907C
:101770000D9905F0B9FA15901999129805F0BAFA71
:101780000D901899139805F0B5FA0C900D9905F085
:10179000ABFA14900020169905F0ACFA0D9032487F
:1017A00001680D9805F04EFA2F4908600020159940
:1017B00005F0A0FA0D902D4801680D9805F042FA49
:1017C0002A4908600020149905F094FA0D902848E1
:1017D00001680D9805F036FA2549086015481699F4
:1017E00005F088FA0C901F9905F02CFA0D901E4810
:1017F00001680D9805F026FA10900E48159905F02D
:1018000079FA37E064000020D80000202801002089
:101810003C0100205001002068000020000024400E
:1018200004010020E800002012E7FAA146DF913F02
:10183000100100209A99993E6F12833A8800002087
:101840005C8FC2F5285CEF3F7B14AE47E17A943F92
:101850008C00002090000020740000206C0000200C
:1018600078000020700000207C0000208000002014
:10187000840000200C90209905F0E4F90D90D248E6
:1018800001680D9805F0DEF90F90D048149905F025
:1018900031FA0C90219905F0D5F90D90CC480168EA
:1018A0000D9805F0CFF90E90CA480E99006805F022
:1018B00021FA0B90C8480F99006805F01BFA0990AF
:1018C000C648006880F000400790109905F012FAB1
:1018D0000890099905F008FA0A900B9905F004FAA6
:1018E000BF490C9005F006FA0D90BE4801680D98AE
:1018F00005F0A8F9BB490860B6480F99006805F0E3
:10190000F9F90B90B4480E99006805F0F3F90990C5
:10191000B4481099006805F0EDF90890099905F0B0
:1019200091F90A900B9905F0DFF9AD490C9005F09B
:10193000E1F90D90A94801680D9805F083F9A749D0
:101940000860A4481099006805F0D4F90B90A348EA
:101950000E99006805F0CEF90990A2480F99006829
:1019600005F0C8F90890099905F0BEF90A900B999D
:1019700005F068F99A490C9005F0BCF90D9096486D
:1019800001680D9805F05EF9934908609248109936
:10199000006805F0AFF90B9090480F99006805F0CA
:1019A000A9F909908F480E99006805F0A3F90890ED
:1019B000099905F047F90A900B9905F095F98849BE
:1019C0000C9005F097F90D90824801680D9805F08C
:1019D00039F98049086008460168006805F08AF90D
:1019E00008907D480168006805F084F906907B48FE
:1019F0000168006805F07EF904907A480168006883
:101A000005F078F90390049905F01CF90590069902
:101A100005F018F90790089905F014F9099005F0F8
:101A2000B8FBCDE90A0106F007FECDE90C0105F08F
:101A3000DBFB1A906B481A99006805F08DF969492B
:101A4000086066481A99006805F086F963490860DD
:101A500061481A99006805F07FF95F4908605D48A0
:101A60001A99006805F078F95A4908605D480168DC
:101A70004FF0804005F03EF9049057480168049803
:101A800005F038F90690554801684FF0404005F0E0
:101A900031F904904F480168049805F02BF905903E
:101AA000069905F0CFF8079005F073FBCDE9080122
:101AB00005F0DEFD4C4A4D4BCDE90A0105F031FA47
:101AC000CDE90C0105F090FB4949486042480168A6
:101AD0004FF0804005F00EF901903F4801680198F1
:101AE00005F008F903903D4801684FF0404005F0CB
:101AF00001F9019039480168019805F0FBF802905E
:101B0000039905F0F1F84FF07E51049005F09AF832
:101B1000059005F03EFBCDE90801324801684FF021
:101B2000804005F0E7F802902C480168029805F023
:101B3000E1F80490284801684FF0804005F0DAF899
:101B4000029024480168029805F0D4F803900499A3
:101B500005F078F8059005F01CFBCDE90601DDE9FC
:101B6000082305F0CDFF204A204BCDE90A0105F0FE
:101B7000D8F9CDE90C0105F037FB1D4908601D4877
:101B800080691D49049005F0E7F8059005F001FB18
:101B90001A4A1B4BCDE9060105F035FACDE90A01D9
:101BA00013488068079005F0F4FACDE90801DDE9F3
:101BB0000A2305F00FF9CDE90C0105F015FB0C49DE
:101BC000886023B000BD0000800000209A99993EF3
:101BD00084000020780000207400002070000020A5
:101BE0006F12833A6C000020775AF01ADCA54C4043
:101BF0001C010020E8000020000034431F85EB5149
:101C0000B81E094010B54FF4A06002F049F800F08A
:101C1000AFFC01F0EDFF00F051FD00F00DF800F019
:101C200023FA00F09DFA00F065FD00F01FFC00F0C3
:101C30006FFE00F0DCFE10BD00B58BB00121084640
:101C400003F076F80121480603F0A5F809220C21DB
:101C5000FE4804F02AF809220B21FC4804F025F87C
:101C60004FF4C050029002208DF80C0002A9F748F2
:101C700003F090FF14208DF8040002208DF8050079
:101C800001208DF806008DF8070001A802F00DF87C
:101C900013208DF8040001208DF805008DF8060052
:101CA0008DF8070001A802F000F8E94803F07EF97A
:101CB00008A803F09FFA00208DF826008DF8270071
:101CC0008DF828008DF829008DF82A0001208DF864
:101CD0002B0000208DF822008DF8230008208DF8BD
:101CE000240003208DF82500ADF8200008A9D8486D
:101CF00003F075F900208DF81A008DF81B00012003
:101D00008DF81C000020ADF81000ADF81200ADF801
:101D10001400ADF81600ADF8180001208DF81D0074
:101D200004A803F0E6F901220221C94803F0E0FC0F
:101D300001221146C64803F0DBFC0BB000BD10B514
:101D40000121C34803F03CFD30B10121C04803F03C
:101D5000D2FD0120BF49087010BD00B585B0022139
:101D6000BB4803F02DFD40B10221B94803F0C3FD8B
:101D70006A460021B64803F0A0FB05B000BD10B5CF
:101D800086B0044600208DF80C008DF80D00082068
:101D90008DF80E00019455208DF80F0055218DF817
:101DA00010108DF811108DF812108DF813108DF899
:101DB00014108DF815108DF816100020A549087024
:101DC00001A9A34803F084FA00BFA24800780028C4
:101DD000FBD006B010BD30B585B005460C460020DE
:101DE0008DF808008DF8090008208DF80A0000958C
:101DF000112C06D0222C04D0332C02D0442C00D03D
:101E000011248DF80B4055218DF80C108DF80D1014
:101E10008DF80E108DF80F108DF810108DF8111030
:101E20008DF8121000208B4908706946884803F02D
:101E30004FFA00BF874800780028FBD005B030BDBE
:101E400030B585B005460C4600208DF808008DF8A9
:101E5000090008208DF80A00009541F2883084427C
:101E600001DD044603E07C48844200DA0446200A8F
:101E70008DF80B00E1B28DF80C1055218DF80D1086
:101E80008DF80E108DF80F108DF810108DF81110C0
:101E90008DF8121000206F49087069466C4803F0F5
:101EA00017FA00BF6B4800780028FBD005B030BDA2
:101EB00030B585B005460C4600208DF808008DF839
:101EC000090008208DF80A000095B4F5FA6F02DDCC
:101ED0004FF4FA6403E014F5FA6F00DA5F4C200A5D
:101EE0008DF80B00E1B28DF80C1055218DF80D1016
:101EF0008DF80E108DF80F108DF810108DF8111050
:101F00008DF812100020534908706946504803F0BC
:101F1000DFF900BF4F4800780028FBD005B030BD86
:101F200070B586B006460C46154600208DF80C00AC
:101F30008DF80D0008208DF80E00019641F28830D2
:101F4000844201DD044603E04348844200DA04464B
:101F5000B5F57A7F02DD4FF47A7503E015F57A7FE7
:101F600000DA3F4D200A8DF80F008DF81040290A45
:101F70008DF811108DF8125055218DF813108DF831
:101F800014108DF815108DF81610002031490870C6
:101F900001A92F4803F09CF900BF2E4800780028C3
:101FA000FBD006B070BDF0B585B007460D461646AD
:101FB0001C4600208DF808008DF8090008208DF8D7
:101FC0000A00009741F28830854201DD054603E0B2
:101FD0002148854200DA0546B6F57A7F02DD4FF4E6
:101FE0007A7603E016F57A7F00DA1D4E1D488442AA
:101FF00001DD044604E01B484042844200DA044606
:10200000280A8DF80B00E9B28DF80C10310A8DF812
:102010000D10F1B28DF80E10210E8DF80F10210C5D
:102020008DF81010210A8DF81110E1B28DF8121000
:102030000020084908706946054803F049F900BFC7
:10204000044800780028FBD005B0F0BD0000024035
:10205000006400409400002078ECFFFF30F8FFFFA0
:1020600018FCFFFF404B4C0000B58BB00121022053
:1020700002F05EFE0121480602F08DFE0121880675
:1020800002F089FE09220C21334803F00EFE0922DA
:102090000D21314803F009FE4FF440500290022018
:1020A0008DF80C0002A92C4803F074FD40208DF837
:1020B000040001208DF8050000208DF806000120A5
:1020C0008DF8070001A801F0F0FD244802F06EFF32
:1020D00008A803F08FF800208DF826008DF827005F
:1020E0008DF828008DF829008DF82A0001208DF840
:1020F0002B0000208DF822008DF8230008208DF899
:10210000240003208DF82500ADF8200008A913480D
:1021100002F065FF0E208DF81A0000208DF81B00DC
:1021200001208DF81C000020ADF81000ADF8120061
:10213000ADF81400ADF81600ADF8180001208DF8C8
:102140001D0004A802F0D5FF01220221034803F07C
:10215000CFFA0BB000BD0000000402400068004050
:1021600000B597B00121084602F0E2FD0121880583
:1021700002F0DEFD0121102002F01EFE07220921DF
:10218000A64803F092FD07220A21A44803F08DFD22
:102190004FF4C060119002208DF8480000208DF8A7
:1021A0004A0003208DF8490000208DF84B0011A94A
:1021B0009A4803F0EFFC4FF4E13013900020ADF8A3
:1021C0005000ADF85200ADF854000C20ADF85600A8
:1021D0000020ADF8580013A9914803F0E9FD012251
:1021E00040F224418E4803F021FF002240F22551A5
:1021F0008B4803F01BFF01224021894803F00DFFAB
:102200000121874803F05CFE44208DF84000012046
:102210008DF841008DF842008DF8430010A801F0C0
:1022200044FD25208DF8400001208DF841008DF8F7
:1022300042008DF8430010A801F037FD794804F002
:102240002DFB4FF0006001907548001D029076480C
:1022500003900020049080200590002006904FF409
:10226000806007900020089009904FF480700A90D9
:102270004FF440300B9000200C900D900E900F907A
:1022800001A9684804F0ACFB01221021654804F064
:102290006EFC0121634804F0DDFB17B000BD10B5F2
:1022A000044600BF40215E4803F0E5FE0028F9D057
:1022B00021465B4803F02FFE10BD70B504460D4665
:1022C00000BF4021564803F0D6FE0028F9D0E1B205
:1022D000534803F020FE204670BD10B5044600BFF1
:1022E00020214F4803F0C7FE0128F9D14C4803F0E4
:1022F00016FE10BD30B502460B464FF6FF700021AA
:1023000012E0555C684000240AE000F0010525B1A8
:102310004AF2010585EA600000E04010651CACB29D
:10232000072CF2DD4D1CA9B29942EADB30BD2DE944
:10233000F04180460C4615460026002729462046D7
:10234000FFF7D8FF07462772380A607200BF0DE01A
:102350002178404603F0DFFD00BF4021404603F0F6
:102360008AFE0028F9D0641C701CC6B20A2EEFDB6E
:10237000BDE8F0812DE9F04107460C4615460026E0
:10238000B04600BF0DE02178384603F0C4FD00BF21
:102390004021384603F06FFE0028F9D0641C701C01
:1023A000C6B2AE42EFDBBDE8F08170B50025002477
:1023B00040F224411A4803F074FEE8B11848058839
:1023C00085880021174804F045FB164804F065FB9A
:1023D000C0F1800500BF05E01349085D01F0D4FAA3
:1023E000601C84B2AC42F7D380210E4804F053FB4A
:1023F00001210C4804F02EFB00BF70BD10B50B4945
:10240000084804F0D1FB38B10949064804F09BFBA9
:102410000649044804F0F2FB10BD00000000024031
:102420000010014088640240640100200088002000
:102430000008002010B5002107E04AF2104200BF5A
:102440001300A2F10102FBD1491C8142F5D310BD5A
:1024500010B5002106E0282200BF1300A2F10102FE
:10246000FBD1491C8142F6D310BD00001FB50121EC
:10247000102002F090FC36208DF8000001208DF82D
:10248000010000208DF8020001208DF8030068464D
:1024900001F00BFC5320ADF804000020ADF806005D
:1024A000ADF80C004FF4FA60029001A92C4801F03D
:1024B00014FD1FBD10B50121294801F097FD01222F
:1024C0001146274802F0AAF90121254802F0BAF97D
:1024D00010BD2DE9FC470121214802F0B6F9002882
:1024E0003BD02049886904F054FE07461E4A1F4B22
:1024F00004F017FD054604F077FE044619494869C3
:1025000004F047FE0746184A184B04F00AFD05463A
:1025100004F06AFE81461349086904F03AFE074652
:10252000114A124B04F0FDFC054604F05DFE8246A4
:102530000C4880680B494968CDE9001009482246DB
:10254000494603685046FFF707F80121044802F0A6
:102550008DF90121024802F075F9BDE8FC87000001
:1025600000100040E800002012E7FAA146DF913F8A
:102570001CB50121084602F0DBFBC02000900120C1
:102580008DF8040000208DF8060003208DF805006A
:102590006946494803F0FEFA4021474803F076FBBC
:1025A0008021454803F072FB1CBD10B5C021424894
:1025B00003F06EFBC820FFF73DFFC0213E4803F04B
:1025C00065FBC820FFF736FFC0213B4803F060FBE6
:1025D000C820FFF72FFFC021374803F057FBC82062
:1025E000FFF728FFC021344803F052FBC820FFF753
:1025F00021FFC021304803F049FB10BD10B5402138
:102600002D4803F045FBC820FFF714FF40212A485E
:1026100003F03CFBC820FFF70DFF4021264803F0E4
:1026200037FBC820FFF706FF4021234803F02EFBAD
:10263000C820FFF7FFFE40211F4803F029FBC820F8
:10264000FFF7F8FE40211C4803F020FB10BD10B539
:102650008021194803F01CFBC820FFF7EBFE802106
:10266000154803F013FBC820FFF7E4FE8021124851
:1026700003F00EFBC820FFF7DDFE80210E4803F0BB
:1026800005FBC820FFF7D6FE80210B4803F000FBB6
:10269000C820FFF7CFFE8021074803F0F7FA10BDEE
:1026A00010B5C021044803F0F3FA10BD10B5C021E5
:1026B000014803F0EBFA10BD000002401CB50121F7
:1026C000084602F035FB0220009001208DF804003E
:1026D00000208DF8060003208DF8050069460448A7
:1026E00003F058FA0221024803F0D0FA1CBD0000A2
:1026F0000000024000B58FB00121084602F018FB2F
:10270000072203217A4803F0D0FA08200D90022016
:102710008DF8380000208DF83A0003208DF839003C
:1027200000208DF83B000DA9714803F033FA012118
:10273000480402F030FB6F4803F0ECFA6E480B904F
:102740000020ADF83000ADF832004FF48060ADF8F5
:1027500034000420ADF836000020ADF838000BA995
:10276000644803F025FB012240F22551614803F043
:102770005DFC01215F4803F0A3FB012240215D487D
:1027800003F04BFC10208DF8380001208DF8390043
:102790008DF83A008DF83B000EA801F086FA012171
:1027A000480502F0C5FA554804F078F84FF000608B
:1027B00000905048001D0190514802900020039065
:1027C00012200490002005904FF4806006900020B5
:1027D000079008904FF4807009904FF440300A90B1
:1027E00000200B900C900D900E906946434804F029
:1027F000F7F801221021414804F0B9F901213F48BE
:1028000004F028F90FB000BD10B53E493B4804F074
:10281000CBF900286BD03C49384804F094F9394989
:10282000364804F0EBF9364800783549497840EAF3
:102830000120C0F30A003549088031484078C010B3
:102840002F49897840EA4110C0F30A002F49488097
:102850002B48807880112A49C97840EA81002849AC
:10286000097940EA8120C0F30A0028498880244879
:10287000007940102249497940EAC110C0F30A00AA
:102880002249C8801E4840790011800808721C48FF
:102890004079C0F301104872194880791849C97904
:1028A00040EA012000B2194948811548007A1449CC
:1028B000497A40EA012001B2144881811048807AA7
:1028C0000F49C97A40EA012001B21048C1810C4881
:1028D000017B0E4801740A48417B0C48417408484A
:1028E000807B0749C97B40EA01200849488210BD26
:1028F0000000024000440040A086010088600240C1
:10290000F80100200088002000080020E4010020D9
:1029100000B58BB00121032002F00AFA012108461C
:1029200002F039FA0820099002208DF828000320CF
:102930008DF8290009A9604803F02CF94FF40040F4
:10294000099002208DF8280003208DF8290009A99C
:102950005A4803F01FF901220321574803F0A5F953
:1029600001220F21554803F0A0F95320ADF81800BB
:102970000020ADF81A0040F6C41007900020ADF812
:10298000200006A94FF0804001F0A7FA7020ADF8B2
:1029900004000120ADF806000020ADF80800039007
:1029A0000220ADF810000020ADF81200ADF81400C0
:1029B0004FF48070ADF8160001A9800501F022FBEC
:1029C00001A94FF0804001F056FB0821C80601F034
:1029D000A6FC0821C80601F0ABFC0121880701F024
:1029E000E7FA0121880701F001FB0BB000BD00B53B
:1029F0008BB00121022002F09BF90121042002F09A
:102A0000CAF94FF44070099002208DF82800032085
:102A10008DF8290009A9284803F0BCF802220921F1
:102A2000254803F042F902220821234803F03DF92A
:102A30000720ADF818000020ADF81A004FF47A70A6
:102A400007900020ADF8200006A91D4801F045FAC6
:102A50007020ADF804000120ADF806000020ADF8AC
:102A6000080003900220ADF810000020ADF812001D
:102A7000ADF814004FF48070ADF8160001A91048AD
:102A800001F046FB01A90E4801F0A8FB08210C4803
:102A900001F05BFC08210A4801F060FC01210848B4
:102AA00001F086FA0121064801F091FE0121044857
:102AB00001F09CFA0BB000BD00040240000002408F
:102AC0000008004070B504460D462A462146FE48DF
:102AD000FFF750FC70BD2DE9FE4F06460F469046AD
:102AE0009946DDF830B00024A2460025AA222146EE
:102AF000641CF64842542146641C425406F10F00FF
:102B0000C2B22146641CF148425400222146641C92
:102B10004254EF49384604F0EDF8019004F001FB0F
:102B200002909DF809202146641CE84842549DF813
:102B300008202146641C4254E549404604F0DAF876
:102B4000019004F0EEFA02909DF809202146641CE1
:102B5000DE4842549DF808202046611CCCB2DB4977
:102B60000A54DB49484604F0C5F8019004F0D9FA4C
:102B700002909DF809202046611CCCB2D3490A542A
:102B80009DF808202046611CCCB2D0490A54D04997
:102B9000584604F0AFF8CE49009004F0DDF80190FB
:102BA00004F0BFFA02909DF809202046611CCCB2C7
:102BB000C6490A549DF808202046611CCCB2C3497E
:102BC0000A54C3490D9804F095F8019004F0A9FA4D
:102BD00002909DF809202046611CCCB2BB490A54E2
:102BE0009DF808202046611CCCB2B8490A54B84967
:102BF0000E9804F07FF8019004F093FA02909DF88B
:102C000009202046611CCCB2B0490A549DF8082026
:102C10002046611CCCB2AD490A54AD490F9804F06E
:102C200069F8019004F07DFA02909DF80920204691
:102C3000611CCCB2A5490A549DF808202046611CAD
:102C4000CCB2A2490A54A249109804F053F801905A
:102C500004F067FA02909DF809202046611CCCB26E
:102C60009A490A549DF808202046611CCCB2974925
:102C70000A549749119804F03DF8019004F051FA74
:102C800002909DF809202046611CCCB28F490A545D
:102C90009DF808202046611CCCB28C490A54201FA4
:102CA000C87006E08948405D504400F0FF0A681C87
:102CB000C5B2A542F6DB2046611CCCB2834901F8BF
:102CC00000A021468148FFF7FDFEBDE8FE8F2DE9FB
:102CD000F84306460F460024A0460025AA222146B6
:102CE000641C7A4842542146641C42540522214601
:102CF000641C425400222146641C425400969DF8F4
:102D000001202146641C42549DF800202146641C89
:102D1000425400979DF801202146641C42549DF8BE
:102D200000202046611CCCB268490A54201FC8709C
:102D300006E06648405D404400F0FF08681CC5B2EC
:102D4000A542F6DB2046611CCCB2604901F8008048
:102D500021465E48FFF7B6FEBDE8F8837FB5002444
:102D600000260025AA222146641C584842542146C8
:102D7000641C425406222146641C4254002221460F
:102D8000641C42549DF801202146641C42549DF865
:102D900000202146641C42549DF805202146641CF5
:102DA00042549DF804202046611CCCB247490A5485
:102DB0009DF809202046611CCCB244490A549DF874
:102DC00008202046611CCCB240490A549DF80D20D1
:102DD0002046611CCCB23D490A549DF80C20214686
:102DE000601CC4B2394842549DF821202046611C21
:102DF000CCB236490A549DF820202046611CCCB242
:102E000032490A549DF825202046611CCCB22F4936
:102E10000A549DF824202046611CCCB22B490A5448
:102E20009DF829202046611CCCB228490A549DF8FF
:102E300028202046611CCCB224490A549DF82D203C
:102E40002146601CC4B2214842549DF82C202046E3
:102E5000611CCCB21D490A54201FC87005E01B48F4
:102E6000405D3044C6B2681CC5B2A542F7DB2046BF
:102E7000611CCCB215490E5421461448FFF722FEBE
:102E80007FBD7FB5002400260025AA222146641CB0
:102E90000E4842542146641C425403222146641CBD
:102EA000425400222146641C42549DF801202146D0
:102EB000641C42549DF800202146641C42549DF835
:102EC00005202146641C05E0001001409D03002000
:102ED00000007A4442549DF804202046611CCCB284
:102EE000FE490A549DF809202046611CCCB2FB49DA
:102EF0000A549DF808202046611CCCB2F7490A54B8
:102F00009DF80D202146601CC4B2F44842549DF83F
:102F10000C202046611CCCB2F0490A549DF82120B7
:102F20002046611CCCB2ED490A549DF82020204671
:102F3000611CCCB2E9490A549DF825202046611C49
:102F4000CCB2E6490A549DF824202046611CCCB23C
:102F5000E2490A549DF829202046611CCCB2DF4981
:102F60000A549DF828202046611CCCB2DB490A5443
:102F70009DF82D202046611CCCB2D8490A549DF8FA
:102F80002C202046611CCCB2D4490A549DF8312033
:102F90002046611CCCB2D1490A549DF8302021460C
:102FA000601CC4B2CD4842549DF835202046611CB7
:102FB000CCB2CA490A549DF834202046611CCCB2D8
:102FC000C6490A54201FC87005E0C448405D30441B
:102FD000C6B2681CC5B2A542F7DB2046611CCCB264
:102FE000BE490E542146BD48FFF76CFD7FBD2DE95B
:102FF000F84F06460F4690469946DDF828B0002463
:103000000025A246AA222146641CB4484254214607
:10301000641C425402222146641C42540022214670
:10302000641C425400969DF801202146641C4254C1
:103030009DF800202146641C425400979DF8012011
:103040002146641C42549DF800202046611CCCB2ED
:10305000A2490A54CDF800809DF801202046611C49
:10306000CCB29E490A549DF800202046611CCCB287
:103070009A490A54CDF800909DF801202046611C21
:10308000CCB296490A549DF800202046611CCCB26F
:1030900092490A54CDF800B09DF801202046611CE9
:1030A000CCB28E490A549DF800202046611CCCB257
:1030B0008A490A540B9800909DF801202046611C13
:1030C000CCB286490A549DF800202146601CC4B247
:1030D000824842540C9800909DF801202046611CC3
:1030E000CCB27E490A549DF800202046611CCCB227
:1030F0007A490A540D9800909DF801202046611CE1
:10310000CCB276490A549DF800202146601CC4B216
:10311000724842540E9800909DF801202046611C90
:10312000CCB26E490A549DF800202046611CCCB2F6
:103130006A490A54201FC87006E06848405D504440
:1031400000F0FF0A681CC5B2A542F6DB2046611CF0
:10315000CCB2624901F800A021466048FFF7B2FCFA
:10316000BDE8F88F2DE9FE4F82460E461746984679
:10317000DDF830B00024A1460025AA222146641CB7
:10318000564842542146641C425401222146641C84
:10319000425400222146641C42545149504603F0D7
:1031A000A9FD009003F0BDFF02909DF80920214683
:1031B000641C4A4842549DF808202146641C42542D
:1031C0004749304603F096FD009003F0AAFF0290B5
:1031D0009DF809202146641C404842549DF808206F
:1031E0002146601CC4B23D4842543D49384603F074
:1031F00081FD009003F095FF02909DF80920204684
:10320000611CCCB235490A549DF808202146601C47
:10321000C4B232484254CDF804809DF807202046BD
:10322000611CCCB22D490A549DF806202046611C31
:10323000CCB22A490A549DF805202046611CCCB224
:1032400026490A549DF804202046611CCCB223492B
:103250000A542046611CCCB2204901F800B0214636
:10326000621CD4B21D4A0D985054201F1146C870DC
:1032700006E01A48405D484400F0FF09681CC5B2EA
:10328000A542F6DB2046611CCCB2144901F800903F
:1032900021461248FFF716FCBDE8FE8F2DE9FF41DD
:1032A0000646002400270025AA222146641C0B485C
:1032B00042542146641C425400222146641C42545C
:1032C0002146641C42542146641C46549DF8052046
:1032D0002146641C42549DF8042003E09D03002015
:1032E0000000C8422146641C42549DF80920204633
:1032F000611CCCB2FE490A549DF808202146601C8E
:10330000C4B2FB4842549DF80D202046611CCCB24B
:10331000F7490A549DF80C202046611CCCB2F449B0
:103320000A549DF829202046611CCCB2F0490A5469
:103330009DF828202046611CCCB2ED490A54201F7C
:10334000C87005E0EA48405D3844C7B2681CC5B2A1
:10335000A542F7DB2046611CCCB2E5490F5421465B
:10336000E348FFF7AFFBBDE8FF812DE9F04387B0ED
:10337000E0480078E049097890FBF1F201FB120186
:10338000DD480078401E814202D10120DB494870AF
:10339000D8480078DA49097890FBF1F201FB120174
:1033A000D7480078401E814202D10120D349C8721B
:1033B000D0480078401CCF490870D048007860B1F0
:1033C0000020CE4908704FF4C87364224FF4967100
:1033D00000900420FFF762FFE1E0C848407878B130
:1033E0000020C6494870C74800780021C64BCDE987
:1033F00000109A68196858680023FFF7B3FECEE002
:10340000BE48807880B30020BC498870BF49886876
:1034100003F087FE04B2BD49486803F082FE05B29E
:10342000BA49086803F07DFE06B2B949886803F01E
:1034300078FE07B2B649486803F073FE0FFA80F8C9
:10344000B349086803F06DFE0FFA80F9002002907E
:103450000390049033463A464146CDE90054059026
:103460004846FFF7C4FD9AE0FFE7A448407A00B35E
:103470000020A84908804880888008814881888188
:103480009E4948720022A348C089A2498989CDE992
:103490000302A0480592029140899E4909899D4CEA
:1034A000CDE90010E388A28861882088FFF7E9FC55
:1034B00075E09248C07A88B100209049C872072010
:1034C000062105220423CDE90032CDE902100323B1
:1034D000022201210020FFF741FC60E08748007BC9
:1034E00040B10020854908734FF4E4717B20FFF759
:1034F000EEFB54E08148C07858B300207F49C87083
:103500008549887803F0F7FD04468349487803F03D
:10351000F2FD05468049087803F0EDFD06467E4938
:1035200088687E4903F018FC07467D48C0697C49DD
:1035300089697B4A5269CDE90065CDE90242CDE94E
:103540000410784882693B4641690120FFF7C3FABD
:1035500025E06A480079E0B10020684908717248A6
:10356000C06971498969704A5269704BDB69CDE95C
:103570000232CDE904106D4880696C494969CDE992
:1035800000106B48C369826941690220FFF7A3FA02
:1035900005E05A48407910B100205849487107B0F9
:1035A000BDE8F0832DE9F04105460E460027AA202C
:1035B0004F4908704870EF2088700220C870084694
:1035C00005714671002405E04948005D3844C7B2E2
:1035D000601CC4B2062CF7DB454887710721FFF752
:1035E00071FABDE8F0812DE9FF5F044689464FF08E
:1035F000000AD34608E014F80B00504400F0FF0A1C
:103600000BF1010000F0FF0BA9F101005845F2DCBD
:1036100004EB090010F8010C504501D0BDE8FF9FF4
:103620002078AA2802D16078AF2800D0F6E7A078E9
:10363000012811D12079012801D13E490870207953
:10364000022802D101203B4948702079032803D188
:103650000120384908704870A078022810D12079DC
:10366000012806D12549C870087148718871C87150
:1036700008722079A02802D101202049087000BFDB
:10368000A07810286FD12579667946EA052003F0E5
:1036900037FD294A294BCDE9000103F042FCCDE971
:1036A000020103F0A1FD1F494861A579E67946EAC8
:1036B000052003F025FD204A204BCDE9000103F051
:1036C00030FCCDE9020103F08FFD16498861257AAF
:1036D000667A46EA052003F013FD194A194BCDE935
:1036E000000103F01EFCCDE9020103F07DFD2BE09B
:1036F0009D030020980000209900002090030020E6
:103700009A000020950000201C01002010010020DC
:1037100004010020D0030020800300200000C842E4
:10372000140200204C030020B002002018030020E7
:10373000E402002096000020FCA9F1D24D62503F27
:103740009A9999999999B93FC5498860A57AE67A75
:1037500046EA05200870257B667B46EA05271FB1EF
:103760000120487003E04EE0FF20BD494870A57B72
:10377000E67B46EA05271FB10120B949887002E0BF
:10378000FF20B7498870257C667C46EA052003F057
:10379000B7FCB44AB44BCDE9000103F0C2FBCDE95C
:1037A000020103F021FDB1494861A57CE67C46EAAF
:1037B000052003F0A5FCAB4AAB4BCDE9000103F0BB
:1037C000B0FBCDE9020103F00FFDA8498861257D1A
:1037D000667D46EA052003F093FCA24AA24BCDE9A0
:1037E000000103F09EFBCDE9020103F0FDFC9F49BF
:1037F000C861A0785146FFF7D5FE0D229C499D482F
:1038000000F085F900BFA07811287DD1257966796F
:1038100046EA052003F074FC924A934BCDE902017D
:1038200003F07FFB074603F0DFFC93494861A5796D
:10383000E67946EA052003F063FC8A4A8A4BCDE923
:10384000020103F06EFB074603F0CEFC8A49886153
:10385000257A667A46EA052003F052FC814A824BBB
:10386000CDE9020103F05DFB074603F0BDFC824990
:10387000C861A57AE67A46EA052003F041FC794A58
:10388000794BCDE9020103F04CFB074603F0ACFC99
:103890007A494861257B667B46EA052003F030FCC7
:1038A000704A714BCDE9020103F03BFB074603F080
:1038B0009BFC72498861A57BE67B46EA052003F004
:1038C0001FFC684A684BCDE9020103F02AFB07465A
:1038D00003F08AFC6949C861257C667C46EA0520BC
:1038E00003F00EFC07465F4A5F4B03F01AFBCDE97D
:1038F000020103F079FC62494861A57CE67C46EA56
:10390000052003F0FDFB00E020E0564A564BCDE9D0
:10391000020103F006FB074603F066FC5849886184
:10392000257D667D46EA052003F0EAFB07464D4A01
:103930004D4B03F0F6FACDE9020103F055FC504976
:10394000C861A0785146FFF72DFE00BFA07812286D
:1039500003D1A0785146FFF725FEA078132803D1A4
:10396000A0785146FFF71EFEA078142803D1A07856
:103970005146FFF717FEA078152803D1A0785146CD
:10398000FFF710FE00BF49E610B504463D48007839
:1039900038B9AA2C05D101203A4908703A48047078
:1039A0005DE038480078012807D1AF2C05D102200E
:1039B000344908703448447051E032480078022895
:1039C00007D1F12C05DA03202E4908702E488470A7
:1039D00045E02C48007803280CD1322C0ADA042068
:1039E000284908702848C4702848047000202849D5
:1039F000087034E023480078042819D1234800785F
:103A0000002815DD21480078401E20490870204814
:103A100000781F490978491C1D4A1170001D1A4978
:103A20000C541A480078D0B905201649087016E0E1
:103A30001448007805280FD1002012490870144856
:103A40000078001D10490C5411480078401DC1B287
:103A50000D48FFF7C8FD02E000200A49087010BDBC
:103A600080030020FCA9F1D24D62503F14020020D7
:103A70004C03002004000C08E4020020180300207E
:103A8000B00200209D000020500400209B00002078
:103A90009C00002001460868704701464848814262
:103AA00001D2002070474748814201D20820F9E73F
:103AB0004548814201D21020F4E74448814201D2B6
:103AC0001820EFE74248814201D22020EAE741482E
:103AD000814201D22820E5E73F48814201D23020CF
:103AE000E0E73E48814201D23820DBE73C48814292
:103AF00001D24020D6E73B48814201D24820D1E79D
:103B00003948814201D25020CCE75820CAE72DE93C
:103B1000F04704460E4617464FF008080025A94610
:103B2000B4F1006F02D304F0030008B1BDE8F087E0
:103B300002F094FC002002F074FC254604EB870997
:103B40002A48854215D211E02846FFF7A3FF401C02
:103B500058B12846FFF7A1FF8246022102F0CAFCB5
:103B60008046B8F1080F01D002E02D1D4D45EBD382
:103B700000BFB8F1080F0CD108E02046316802F010
:103B800062FD082800D003E0241D361D4C45F4D307
:103B900000BF012002F045FC02F06DFC00BFC5E74C
:103BA00030B503460C461546002206E01846FFF7DE
:103BB00071FF44F822001B1D521CAA42F6D330BDEF
:103BC000004000080080000800C000080000010854
:103BD00000000208000004080000060800000808B1
:103BE00000000A0800000C0800000E080000FF1F7B
:103BF0001CB50121084601F09BF82020009001200F
:103C00008DF8040000208DF8060003208DF80500D3
:103C10006946124801F0BEFF2021104802F038F832
:103C20001CBD10B520210D4802F030F84FF4FA7099
:103C3000FEF700FC2021094802F02AF8C820FEF710
:103C4000F9FB2021054802F021F86420FEF7F2FB81
:103C50002021024802F01CF810BD000000000240C4
:103C60000E49086070470D49486070470B498860ED
:103C700070474AF6AA200949086070474CF6CC40C4
:103C800006490860704701460020044AD2680A408D
:103C90000AB1012000E00020704700000030004021
:103CA00032490143324A1160704770B50021002348
:103CB0000F22C4781CB32E4C246804F4E064C4F5CD
:103CC000E064C4F30721C1F10404E3B20A4144787B
:103CD0009C40E1B28478144021430C07210E254C0E
:103CE00005786155047804F01F050124AC4005787F
:103CF0006D11AD0005F1E025C5F8004109E004783B
:103D000004F01F050124AC401B4D0678761145F8E0
:103D1000264070BD194A0A400243154B1B1F1A600A
:103D2000704739B1124A121D12680243104B1B1D15
:103D30001A6006E00E4A121D126882430C4B1B1DCE
:103D40001A607047042808D14FF0E021096941F05A
:103D500004014FF0E022116107E04FF0E021096912
:103D600021F004014FF0E022116170470000FA05D4
:103D70000CED00E000E400E080E100E080FFFF1FC8
:103D800010B50446FE48844208D10121084601F0DE
:103D90007BF80021012001F077F89DE0B4F1804F1D
:103DA00008D10121084601F05EF80021012001F050
:103DB0005AF891E0F348844208D10121022001F031
:103DC00052F80021022001F04EF885E0EE488442CE
:103DD00008D10121042001F046F80021042001F05F
:103DE00042F879E0E948844208D10121082001F035
:103DF0003AF80021082001F036F86DE0E4488442EA
:103E000008D10121102001F02EF80021102001F02E
:103E10002AF861E0DF48844208D10121202001F026
:103E200022F80021202001F01EF855E0DA488442F3
:103E300008D10121022001F027F80021022001F021
:103E400023F849E0D548844209D10121080401F052
:103E50001BF800214FF4803001F016F83CE0D04808
:103E6000844209D10121480401F00EF800214FF4E9
:103E7000003001F009F82FE0CA48844209D101213D
:103E8000880401F001F800214FF4802000F0FCFFCD
:103E900022E0C548844208D10121402000F0E3FF20
:103EA0000021402000F0DFFF16E0C048844208D126
:103EB0000121802000F0D7FF0021802000F0D3FFF7
:103EC0000AE0BB48844207D10121801500F0CBFFF6
:103ED0000021A01500F0C7FF10BD00220288A84BEA
:103EE00098420ED0AC4B98420BD0B0F1804F08D026
:103EF000A44B984205D0A44B984202D0A34B9842C1
:103F000004D14FF68F731A404B881A43A04B984246
:103F100007D0A04B984204D04FF6FF431A400B89BC
:103F20001A4302804B68C3620B880385944B984206
:103F300002D0994B984201D18B7A03860123838268
:103F400070474FF0FF3141600021018001814180C5
:103F5000817270470185828270470A46002101887C
:103F60004FF68F73194011430180704741627047CB
:103F7000C16270470146486A70470146088D704724
:103F800021B1028842F00202028004E002884FF66A
:103F9000FD731A400280704721B1028842F004028A
:103FA000028004E002884FF6FB731A4002807047DB
:103FB00021B1028842F08002028004E002884FF6BC
:103FC0007F731A400280704702884FF6F7731A40D9
:103FD000028002880A430280704702884FF6FF433E
:103FE0001A40028002880A430280704721B1028889
:103FF00042F00102028004E002884FF6FE731A408C
:104000000280704770B5002400220023058C4FF613
:10401000FE7635400584028C8388048B4FF68F75BD
:104020002C40B51E2C400D882C43751E2A408D89CE
:104030002A434D882A43524DA84202D0564DA842E9
:1040400013D14FF6F7752A40CD892A434FF6FB75F9
:104050002A408D882A434FF6FF652B404FF6FF55C7
:104060002B400D8A2B434D8A2B43838004838D681C
:104070004563028470BD70B5002400220023058CC6
:104080004FF6EF7635400584028C8388048B48F622
:10409000FF752C404FF6FF452C400D884FF6FF76FC
:1040A00006EA05252C434FF6DF752A408D8906EA7E
:1040B00005152A434D8806EA05152A43304DA842C6
:1040C00002D0354DA8421DD14FF67F752A40CD89CB
:1040D0004FF6FF7606EA05152A434FF6BF752A40CC
:1040E0008D8806EA05152A434FF6FF352B404FF21F
:1040F000FF752B400D8A06EA85052B434D8A06EA9B
:1041000085052B43838004838D688563028470BD9D
:1041100070B5002400220023058C4FF6FF66354061
:104120000584028C8388848B4FF68F752C404FF664
:10413000FC752C400D882C434FF6FF552A408D8985
:104140004FF6FF7606EA05252A434D8806EA05253F
:104150002A430B4DA84202D00F4DA84238D14FF24E
:10416000FF752A40CD894FF6FF7606EA05252A43DA
:104170004FF6FF352A408D8806EA05252A4319E0C7
:10418000000001400004004000080040000C004016
:1041900000100040001400400004014000400140B5
:1041A000004401400048014000180040001C00404D
:1041B000002000404EF6FF752B404DF6FF752B405A
:1041C0000D8A06EA05152B434D8A06EA05152B4391
:1041D000838084838D68C563028470BD70B50022BE
:1041E00000230024058C4EF6FF7635400584038CB1
:1041F0008488828B48F6FF752A404FF6FF452A4097
:104200000D884FF6FF7606EA05252A434DF6FF7521
:104210002B408D8906EA05352B434D8806EA053586
:104220002B43FE4DA84202D0FD4DA84208D14BF6CB
:10423000FF752C400D8A4FF6FF7606EA85152C4354
:10424000848082838D680564038470BD00210180B1
:104250004180818081608181C1810182418270477A
:1042600070B50346002000241846183001258D4003
:10427000ACB21D8CA5431D8409B108290AD100EBFD
:10428000610005684FF68F76354005600568154377
:1042900005600FE00D1FC5F34E052844056848F67C
:1042A000FF763540056005684FF6FF7606EA022680
:1042B0003543056070BD4163704781637047C163DA
:1042C0007047016470470A460021018B4FF68F73D7
:1042D00019401143018370470A460021018B48F6BB
:1042E000FF7319404FF6FF7303EA0223194301835A
:1042F00070470A460021818B4FF68F731940114396
:10430000818370470A460021818B48F6FF7319406C
:104310004FF6FF7303EA02231943818370470A466D
:104320000021018B4FF6F773194011430183704749
:104330000A460021018B4FF2FF7319404FF6FF73BD
:1043400003EA02231943018370470A460021818B47
:104350004FF6F77319401143818370470A460021D5
:10436000818B4FF2FF7319404FF6FF7303EA02236C
:104370001943818370470A460021018B4FF6FB7376
:1043800019401143018370470A460021018B4FF603
:10439000FF3319404FF6FF7303EA022319430183E9
:1043A00070470A460021818B4FF6FB731940114379
:1043B000818370470A460021818B4FF6FF331940F5
:1043C0004FF6FF7303EA02231943818370470A46BD
:1043D0000021018B4FF67F73194011430183704711
:1043E0000A460021018BC1F30E014FF6FF7303EA69
:1043F00002231943018370470A460021818B4FF63F
:104400007F7319401143818370470A460021818BD5
:10441000C1F30E014FF6FF7303EA022319438183B0
:1044200070470A460021018C4FF6FD731940114375
:10443000018470470A460021018C4FF6F77319403A
:104440001143018470470A460021018C4FF6DF7347
:1044500019404FF6FF7303EA0213194301847047B2
:104460000A460021018C4FF67F7319404FF6FF7307
:1044700003EA02131943018470470A460021018CA4
:104480004FF6FF5319404FF6FF7303EA0223194317
:10449000018470470A460021018C4FF2FF731940D6
:1044A0004FF6FF7303EA02231943018470470A465B
:1044B0000021018C4DF6FF7319404FF6FF7303EA9C
:1044C000023319430184704730B5002301248C4026
:1044D000A3B2048C9C430484048C02FA01F5ADB2AF
:1044E0002C43048430BD30B5002304248C40A3B297
:1044F000048C9C430484048C02FA01F5ADB22C4375
:10450000048430BD828B4FF2FF331A408283828B4A
:104510004FF6FF7303EA01231A4382837047F0B515
:104520000C461546002100220026078C4EF6FF7C23
:1045300007EA0C070784818B028C4FF6FF7707EAA6
:10454000043640F6FF4739404FF6FF7707EA052764
:1045500039434FF6FF7707EA0337394345F6FF77CC
:104560003A4046F480573A4381830284F0BD828BFF
:104570004FF6F3731A408283828B0A43828370471B
:10458000F0B50C461546002100220026078C4FF698
:10459000FF6C07EA0C070784818B028C4FF6FF77CC
:1045A00007EA04264FF60C7739404FF6FF7707EA03
:1045B00003172F4339434FF2FF573A4046F48077B1
:1045C0003A4381830284F0BD028B4FF2FF331A40DD
:1045D0000283028B4FF6FF7303EA01231A4302831F
:1045E0007047F0B50C461546002100220026078CC6
:1045F0004FF6EF7C07EA0C070784018B028C4FF61D
:10460000FF7707EA041640F6FF4739404FF6FF7779
:1046100007EA033739434FF6FF7703E00000014014
:104620000004014007EA052739434FF65F773A4017
:1046300046F010073A4301830284F0BD028B4FF627
:10464000F3731A400283028B0A4302837047F0B56A
:104650000C46154600210022068C4FF6FE773E40A0
:104660000684018B028C4FF60C7631407E1C06EAE4
:1046700003162E4331434FF6F576324044F00106DF
:10468000324301830284F0BD70B505460C46208894
:1046900050B92389A28861882846FFF7D8FFE188AE
:1046A0002846FFF7CBFF25E0208804280AD123897C
:1046B000A28861882846FFF794FFE1882846FFF723
:1046C00083FF17E0208808280AD12389A2886188FF
:1046D0002846FFF755FFE1882846FFF748FF09E025
:1046E0002389A28861882846FFF719FFE1882846B8
:1046F000FFF708FF70BD002101804180012181800A
:104700000021C180018170472DE9F04105460C462A
:1047100000260127608808B9022600E00026A0884C
:10472000012801D1022700E001272088A0B92389B0
:10473000A28861882846FFF78AFFE1882846FFF7AC
:104740007DFF23893A4631462846FFF74AFFE18834
:104750002846FFF739FF13E02389A288618828469D
:10476000FFF73FFFE1882846FFF72EFF23893A46EF
:1047700031462846FFF76BFFE1882846FFF75EFFCA
:10478000BDE8F0810146486B70470146886B704771
:104790000146C86B70470146086C70470A884B8811
:1047A0001A438B881A43CB881A430B891A434B89C7
:1047B0001A438B891A43A0F84420704700210180D6
:1047C00041808180C180018141818181704731B107
:1047D000B0F8442042F40042A0F8442005E0B0F8CC
:1047E0004420C2F30E02A0F84420704721B1828811
:1047F00042F00402828004E082884FF6FB731A4084
:104800008280704721B1828842F00102828004E0F8
:1048100082884FF6FE731A40828070471AB18389EE
:104820000B43838102E083898B43838170478182BC
:10483000704702460020138A0B400BB1012000E0B4
:1048400000207047CA430282704730B502460020FC
:1048500000230024158A05EA0103958905EA01046D
:1048600013B10CB1012000E0002030BDCA43028228
:10487000704741EA0203A0F8483070471AB18389B3
:104880000B43838102E083898B438381704721B18D
:10489000828842F00802828004E082884FF6F77333
:1048A0001A408280704701894FF6F87211400181E9
:1048B00070470A46002101894FF68F731940114352
:1048C0000181704730B504460D4629462046FFF762
:1048D000F0FF208940F00700208130BD2DE9F04134
:1048E00004460D4616461F46602D06D13B46012262
:1048F00031462046FFF775FE05E03B460122314672
:104900002046FFF7A4FE29462046FFF7D2FF208964
:1049100040F007002081BDE8F08130B50C46002151
:104920000189C9B24FF6FF7505EA032515432543F2
:104930002943018130BD2DE9F04105460E46174659
:104940009846002443463A4631462846FFF7E5FF9D
:104950002C894FF6F870044044F007044FF68F702E
:10496000044044F070042C81BDE8F081F0B50446A9
:104970000D4616461F463B46324629462046FFF75F
:10498000CCFF208940F480402081F0BD82884FF622
:104990008F731A40828082880A438280704702891E
:1049A0004FF6F8731A40028102890A430281704768
:1049B00002894FF67F731A40028102890A430281FD
:1049C0007047F0B50C4615461E4600210022002314
:1049D0000189028B038C4FF6F877394021434FF65B
:1049E000FC473A4040F201173A434FF6DD773B402F
:1049F0004FF6FF7707EA06172F433B4301810283F7
:104A00000384F0BD21B1828842F08002828004E0FC
:104A100082884FF67F731A4082807047A0F850104A
:104A200070470000FA48006840F00100F84908604B
:104A30000020F74908310860F5480068F54908404A
:104A4000F3490860F448091D0860081F006820F455
:104A50008020091F08600020ED490C310860704774
:104A60000021EB4A921C117011460870704710B576
:104A700001460022002300204A11012A02D1E44C01
:104A8000236808E0022A03D1E14C7034236802E075
:104A9000DF4C7434236801F01F02012494401C4051
:104AA0000CB1012000E0002010BD38B500200090BE
:104AB0000024002500BF3120FFF7D9FF05460098EC
:104AC000401C00900098B0F5A06F01D0002DF2D0EE
:104AD0003120FFF7CCFF08B1012400E0002420467C
:104AE00038BD01460020CA4A106820F0F80040EAAC
:104AF000C10010607047C949086070470021C44A6E
:104B0000703211701170012802D004280AD104E01B
:104B10000121BF4A7032117005E00521BC4A703294
:104B2000117000E000BF00BF7047BD4908607047CA
:104B300070B5049C41EA82150126C6EB530645EA8E
:104B40000645054345EA0465B14E361D356070BD26
:104B5000B24908667047820142EA0172AC4B843365
:104B60001A607047AD4988667047AC49C8647047A1
:104B700002460020A64B0833186820F0EC6042EA99
:104B800001031843A24B0833186070470246002007
:104B90009F4B0833186820F0784042EA010318431D
:104BA0009B4B08331860704701460020984A083232
:104BB000106820F0030008431060704794480830E4
:104BC000006800F00C00704701460020904A08324F
:104BD000106820F0F0000843106070470146002084
:104BE0008B4A0832106820F4E05008431060704788
:104BF00001460020864A0832106820F4604040EAEE
:104C0000C10010607047F0B5002100220024022589
:104C1000002602237E4F08373F6807F00C0121B1C0
:104C2000042905D0082937D105E07E4F076036E01A
:104C30007D4F076033E0764F3F1D3F68C7F38056D6
:104C4000734F3F1D3F6807F03F036EB1764FB7FBD0
:104C5000F3F7DFF8BCC10CF1040CDCF800C0CCF3B6
:104C6000881C07FB0CF40CE06E4FB7FBF3F7DFF882
:104C7000A0C10CF1040CDCF800C0CCF3881C07FBCD
:104C80000CF4634F3F1D3F68C7F301477F1C7D0055
:104C9000B4FBF5F7076002E0624F076000BF00BF9A
:104CA0005B4F08373F6807F0F00109095F4F7A5CF6
:104CB0000768D7404760564F08373F6807F4E05110
:104CC000890A5A4F7A5C4768D7408760504F083747
:104CD0003F6807F46041490B544F7A5C4768D740FE
:104CE000C760F0BD002100F44072B2F5407F0AD1E8
:104CF000474A0832116821F4F8114D4A0240114325
:104D0000434A08321160424A70321268C0F30B0302
:104D10001A433F4B70331A60704741494439086069
:104D200070473F4940390860704742490860704702
:104D300039B1374A303212680243354B30331A608A
:104D400006E0334A303212688243314B30331A6006
:104D5000704739B12E4A3432126802432C4B343337
:104D60001A6006E02A4A343212688243284B3433F0
:104D70001A60704739B1264A383212680243244B10
:104D800038331A6006E0224A383212688243204BD8
:104D900038331A60704739B11D4A403212680243F5
:104DA0001B4B40331A6006E0194A403212688243B6
:104DB000174B40331A60704739B1154A44321268B4
:104DC0000243134B44331A6006E0114A443212681E
:104DD00082430F4B44331A60704739B10C4A10328A
:104DE000126802430A4B10331A6006E0084A103278
:104DF00012688243064B10331A607047E1B1044ACF
:104E0000143212680243024B14331A6019E0000096
:104E100000380240FFFFF6FE103000240000474239
:104E2000800E47420024F40040787D019E0000205F
:104E3000FFFCFF0F5C0147425B4A126882435A4BFA
:104E40001A60704739B1584A121D12680243564B16
:104E50001B1D1A6006E0544A121D12688243524B11
:104E60001B1D1A60704739B14F4A0C321268024359
:104E70004D4B0C331A6006E04B4A0C3212688243E9
:104E8000494B0C331A60704739B1474A10321268E7
:104E90000243454B10331A6006E0434A1032126851
:104EA0008243414B10331A60704739B13E4A3C325D
:104EB000126802433C4B3C331A6006E03A4A3C32EB
:104EC00012688243384B3C331A60704739B1364A16
:104ED000403212680243344B40331A6006E0324AD3
:104EE000403212688243304B40331A60704739B108
:104EF0002D4A4432126802432B4B44331A6006E0B9
:104F0000294A443212688243274B44331A6070475F
:104F100039B1254A4C3212680243234B4C331A6094
:104F200006E0214A4C32126882431F4B4C331A6010
:104F3000704739B11C4A5032126802431A4B503341
:104F40001A6006E0184A503212688243164B5033FA
:104F50001A60704739B1144AD21F12780243124BBB
:104F6000DB1F1A7006E0104AD21F127882430E4BE4
:104F7000DB1F1A7070470C486030006840F080708A
:104F8000094960310860704701460020064A083A26
:104F900012680A400AB1012000E00020704702496F
:104FA000891F0870704700001438024010B504468D
:104FB000FE48844209D101214806FFF754FF002131
:104FC0004FF00070FFF74FFF08E001218806FFF760
:104FD0004AFF00214FF08060FFF745FF10BD30B55C
:104FE000024600200023146824F0020414601468B0
:104FF00044F00104146000E05B1C546804F00104F8
:105000001CB94FF6FF74A342F6D1546804F00104B2
:105010000CB900206CE08C79012C04D1146844F0A8
:105020008004146003E0146824F080041460CC79D8
:10503000012C04D1146844F04004146003E01468A7
:1050400024F0400414600C7A012C04D1146844F05C
:105050002004146003E0146824F0200414604C7AE7
:10506000012C04D1146844F01004146003E01468A7
:1050700024F0100414608C7A012C04D1146844F0DC
:105080000804146003E0146824F008041460CC7A67
:10509000012C04D1146844F00404146003E0146883
:1050A00024F0040414608C78A407CD7844EA0564E5
:1050B0000D7944EA05444D7944EA05540D886D1E86
:1050C0002C43D461146824F001041460002300E030
:1050D0005B1C546804F001041CB14FF6FF74A3423A
:1050E000F6D1546804F001040CB1002000E0012066
:1050F00030BD10B50021837A012202FA03F1AC4AD7
:10510000126842F00102AA4B1A60A94A1C321268C6
:105110008A43A74B1C331A60027BCAB9A44A0C32DB
:1051200012688A43A24B0C331A604288C38842EA51
:1051300003439F4A4032847A42F83430028883889D
:1051400042EA03439A4A4032847A02EBC402536033
:10515000027B012A19D1964A0C3212680A43944BF9
:105160000C331A604288038842EA0343904A403273
:10517000847A42F83430C288838842EA03438C4AF6
:105180004032847A02EBC4025360C27A3AB9884A48
:10519000121D12688A43864B1B1D1A6006E0844A62
:1051A000121D12680A43824B1B1D1A60028932B914
:1051B0007F4A143212688A437D4B14331A60028985
:1051C000012A06D17A4A143212680A43784B143302
:1051D0001A60427B012A06D1754A1C3212680A43C2
:1051E000734B1C331A60724A126822F00102704B32
:1051F0001A6010BD00218171C1710172417281720A
:10520000C1728170C17003210171022141710121BC
:10521000018070476649096841F00101644A1160E4
:105220001146096843F60E729143614A11601146B6
:10523000096841EA002111601146096821F0010165
:105240001160704721B1026842F48032026003E0CD
:10525000026822F4803202607047E1B1026842F0D5
:10526000800202604FF4C272125842F480734FF40D
:10527000C27213504FF4CA72125842F480734FF442
:10528000CA7213504FF4D272125842F480734FF422
:10529000D27213501BE0026822F0800202604FF4C9
:1052A000C272125822F480734FF4C27213504FF43A
:1052B000CA72125822F480734FF4CA7213504FF41A
:1052C000D272125822F480734FF4D2721350704786
:1052D00010B502460020936803F08063B3F1806F3D
:1052E00000D110E0936803F00063B3F1006F01D1C7
:1052F000012008E0936803F08053B3F1805F01D18F
:10530000022000E00420042879D002F5C07303EBEA
:1053100000131B6803F0010402F5C07303EB0013D4
:105320001C600B7A7BB94B7A0C8843EA445302F534
:10533000C07404EB00142468234302F5C07404EB2A
:105340000014236010E00B7A4C6843EAC4034C7AE3
:10535000234302F5C07404EB00142468234302F5D0
:10536000C07404EB001423608B7A03F00F038B727C
:1053700002F5C07303EB00135B6823F00F0402F522
:10538000C07303EB00135C6002F5C07303EB001302
:105390005B688C7A234302F5C07404EB00146360ED
:1053A0008B7B1C064B7B44EA034403E00064004013
:1053B000006600400B7B44EA0323CC7A234302F5CA
:1053C000C07404EB0014A3608B7C1C064B7C44EA85
:1053D00003440B7C44EA0323CC7B234302F5C074D3
:1053E00004EB0014E36002F5C07303EB00131B68C9
:1053F00043F0010402F5C07303EB00131C6010BD01
:1054000010B50246002321B1012907D002290FD18E
:1054100009E09068F94C00EA04030BE09068F84C4E
:1054200000EA040306E09068F64C00EA040301E099
:10543000002300BF00BFF44C181BA34216D007DCAA
:1054400083B16FF08060184470B1022818D111E068
:10545000B0F5007F10D0ED4C204448B1B0F5003FCE
:105460000ED10BE002230DE000230BE0002309E046
:10547000002307E0012305E0012303E0012301E00D
:10548000002300BF00BFD8B210BD21B1012907D051
:1054900002290FD109E0826842F0800282600AE0AE
:1054A000826842F40042826005E0826842F40002B1
:1054B000826000E000BF00BF704710B500F5D873F0
:1054C00003EB01131B6803F004031372137A53B93F
:1054D00000F5D87303EB01131B6840F2FF7404EA74
:1054E0005353136009E000F5D87303EB01131B68F5
:1054F0006FF0604404EAD303536000F5D87303EB04
:1055000001131B6803F00203537200F5D87303EB19
:1055100001135B6803F00F03937200F5D87303EB7C
:1055200001135B681B0AD37400F5D87303EB0113F6
:105530009B68D37200F5D87303EB01139B681C0AB8
:10554000147300F5D87303EB01139B681C0C5473A0
:1055500000F5D87303EB01139B681B0E937300F5E2
:10556000D87303EB0113DB68D37300F5D87303EB37
:105570000113DB681C0A147400F5D87303EB0113E4
:10558000DB681C0C547400F5D87303EB0113DB6863
:105590001B0E937421B9C36843F02003C36003E07A
:1055A000036943F02003036110BD21B9C26842F0D2
:1055B0002002C26003E0026942F0200202617047EB
:1055C0000246002019B9D36803F0030006E0012960
:1055D00003D1136903F0030000E00020704710B509
:1055E00002460B4600204FF6FF71BBB9146824F049
:1055F000020444F00104146000E0491E546804F001
:105600000304012C01D00029F7D1546804F00304ED
:10561000012C01D0002032E0012030E0012B13D119
:10562000146824F00304146000E0491E546804F078
:1056300003040CB10029F8D1546804F003040CB140
:1056400000201CE001201AE0022B17D1146824F07E
:10565000010444F00204146000E0491E546804F0A0
:105660000304022C01D00029F7D1546804F003048C
:10567000022C01D0002002E0012000E0002010BD3B
:10568000014600200A6822F0010242F002020A608C
:105690004A6802F00302022A00D101207047014645
:1056A0004FF6FF7200200B6823F002030B6000E04E
:1056B000521E4B6803F00203022B01D1002AF7D1DE
:1056C0004B6803F00203022B00D001207047014613
:1056D00000208A6902F070007047014600208A6944
:1056E000100E7047014600208A69C2F307407047D8
:1056F0001AB143690B43436102E043698B43436141
:10570000704710B50246002001F4700343B193695D
:10571000C1F3130423400BB101202DE000202BE046
:1057200001F0807343B15368C1F3130423400BB1FC
:10573000012021E000201FE001F0006343B19368E5
:10574000C1F3130423400BB1012015E0002013E046
:1057500001F0007343B1D368C1F3130423400BB1CC
:10576000012009E0002007E01369C1F3130423407E
:105770000BB1012000E0002010BD0022244B994213
:1057800002D10023836111E0C1F3130201F0007321
:105790000BB1C2600AE001F080630BB1026105E069
:1057A00001F000630BB1826000E042607047024686
:1057B000002002EA01030BB1012000E00020704745
:1057C00070B504460D46002660692840002872D056
:1057D000B5F5807F69D01DDC082D42D006DC012D97
:1057E0002DD0022D31D0042D7FD134E0102D3ED0AC
:1057F000202D42D0402D78D145E000000300000468
:105800000003000800000310000100080001FFF77A
:105810007000F030B5F5004F61D009DCB5F5007FC0
:105820004AD0B5F5806F4DD0B5F5006F5DD150E031
:10583000B5F5803F2DD0B5F5003F56D12FE0A068DB
:105840005549FFF7B4FF064651E0E0680321FFF732
:10585000AEFF06464BE0E0680821FFF7A8FF0646CA
:1058600045E0E0681021FFF7A2FF06463FE020690F
:105870000321FFF79CFF064639E020690821FFF766
:1058800096FF064633E020691021FFF790FF064699
:105890002DE060680821FFF78AFF064627E0606870
:1058A0001021FFF784FF064621E0A0690121FFF7E0
:1058B0007EFF06461BE01BE0A0690221FFF777FF91
:1058C000064614E0A0690421FFF771FF06460EE0CA
:1058D0000BE0A0697021FFF76AFF064607E06068E9
:1058E0000421FFF764FF064601E0002600BF00E048
:1058F0000026304670BDB1F5007F3AD00FDC20297C
:1059000028D006DC01291CD004291DD0082940D14B
:105910001DE0402921D0B1F5807F3AD126E0B1F5D4
:10592000004F31D006DCB1F5806F25D0B1F5006FA6
:105930002FD124E0B1F5803F12D0B1F5003F28D13E
:1059400011E0154A826025E00822C26022E01022A0
:10595000C2601FE0082202611CE01022026119E00F
:105960000822426016E01022426013E004224260E6
:1059700010E0042242600DE0042242600AE00022AE
:1059800082610422426005E00022826104224260BA
:1059900000E000BF00BF7047010101000020444942
:1059A0000860091D0860091D0860091D086041485C
:1059B0003F4914310860704700213D498279002A2F
:1059C0003AD00A46126803689A430B461A600A1DC9
:1059D000126803689A430B1D1A60027911440A6821
:1059E00003681A430A60324A0832126803689A430D
:1059F0002F4B08331A601A1D126803689A432C4B08
:105A00000C331A604279102A0ED11A1F12680368EB
:105A10001A43274B08331A601A1D126803681A4389
:105A2000234B0C331A600DE02149427911440A6876
:105A300003681A430A6005E0027911440A680368A2
:105A40009A430A6070470021016001710C21417185
:105A50000021817170471649103109680143144AC9
:105A600010321160704701460020114A143212684A
:105A70000A400AB1012000E0002070470C491431AF
:105A800008607047014600200022094B1B6803EAAA
:105A90000102074B14331B680B4013B10AB10120FC
:105AA00000E0002070470249143108607047000090
:105AB000003C0140FFFF7F0010B504468C48844243
:105AC00008D101210846FFF788F900210120FFF7DE
:105AD00084F95EE08748844208D101210220FFF763
