:020000040800F2
:10000000B808002001010008A5290008952800086B
:100010003929000895180008D939000800000000A7
:10002000000000000000000000000000812D00081A
:100030002B21000800000000F12B0008A92E000869
:100040001B0100081B0100081B0100081B01000820
:100050001B0100081B0100081B0100081B01000810
:100060001B0100081B0100081B0100081B01000800
:100070001B0100081B0100081B010008E91E000805
:100080001B0100081B0100081B010008593900086A
:100090007D3900081B0100081B0100081B01000836
:1000A0001B0100081B0100081B0100081B010008C0
:1000B0001B010008A92F0008C52F00081B0100081C
:1000C0001B0100081B0100081B0100081B010008A0
:1000D0001B010008553600081B0100081B01000821
:1000E000192500081B0100081B010008DFF80CD0CF
:1000F00000F062FA00480047113C0008B8080020F0
:100100000648804706480047FEE7FEE7FEE7FEE7B1
:10011000FEE7FEE7FEE7FEE7FEE7FEE7492F000801
:10012000ED000008F0B480EA0102D40F4200B2EB07
:10013000410F02D20246084611464A0042D0C30D82
:10014000DDB2C1F3C752AD1A202D35DAC1F3160165
:1001500041F4000204B15242C5F1200602FA06F150
:100160002A411044B3EBD05F23D0C4B1012DA0EBE2
:10017000C35009DCF0BC4FF0004202EAC352DBB2CC
:1001800000F5000000F08DB9400000F1807000EB38
:10019000C350A0F1807040EAD170490009E04908DD
:1001A00041EAC071A0EBC35000F50000400800EB2D
:1001B000C350F0BC00F06CB96142012202EB410176
:1001C000001BF6E7F0BC704781F00041AAE780F021
:1001D0000040A7E780EA010210B502F000434000AA
:1001E00022D04A001FD0010E01EB1261C0F356006D
:1001F000C2F3560240F4000042F40002A0FB0220C9
:1002000000047F39140400D0401C50EA124001D48D
:100210004000491EC2B20C0604EBD010401C40083E
:10022000802A02D003E0002010BD20F00100002948
:1002300000DA0020184310BD30B480EA010202F059
:10024000004530F0004221F0004013D090B1C30DC2
:10025000D40DC2F31601C0F31600E41A41F40001F4
:1002600040F400027D34914201D3641C00E0490057
:10027000002C02DA30BC002070474FF4000000234D
:10028000914201D3891A034340084FEA4101F7D153
:1002900051B1914202D14FF0004105E002D24FF03E
:1002A000010101E06FF0010103EBC450284430BCB0
:1002B00000F0EEB82DE9FE4F81EA030404F000449B
:1002C00021F0004100944FF0000B23F0004350EA6E
:1002D00001045ED052EA03045BD0C3F30A54C1F3B5
:1002E0000A552C44A4F2F3340194A0FB0254C1F348
:1002F000130141F48011C3F3130343F4801301FB92
:10030000024400FB034E840A970A44EA815447EAF8
:100310008357A4FB076802958D0A05FB07854FEA02
:10032000932C04FB0C542705029D4FEA065847EA1C
:100330001637B5EB08056EEB070C870E920E47EAF1
:10034000811742EA8312A7FB0201B6EB0B0164EBB3
:1003500000042B0D43EA0C335E1844EB1C50DA46C4
:100360005146E7FB0201C5F313044FEA0B3343EA9E
:1003700014534FEA0432019C43EA0603A4F10C042F
:100380000294009CCDE900B400F0C8F803B0BDE8C9
:10039000F08F00200146F9E7C10F80EAE0700844C1
:1003A000CA079623002100F07CB89623002211464C
:1003B00000F077B80EB5C10F80EAE0700844CA07B4
:1003C000002140F233438DE80E000A460B4600F050
:1003D000A5F803B000BD00F0004220F00040C10DC0
:1003E000C0F3160040F400007F2901DA00207047B6
:1003F000962903DCC1F19601C84001E09639884096
:10040000002AF4D04042704720F00040C10DC0F3F4
:10041000160040F400007F2901DA00207047962979
:1004200003DCC1F19601C840704796398840704797
:1004300001F0004330B421F0004150EA010206D03F
:100440000A0DA2F56072C1F31301002A02DC30BC70
:1004500000207047440F44EAC104C100E01830BCDA
:1004600000EBC25000F014B8002801DBC0F10040DE
:10047000002901DBC1F1004181427047002801DB06
:10048000C0F10040002901DBC1F100418842704702
:100490000029A8BF7047401C490008BF20F0010098
:1004A000704710B4B0FA80FC00FA0CF050EA010476
:1004B00004BF10BC704749B1CCF1200421FA04F408
:1004C00011FA0CF118BF012121430843A3EB0C01E1
:1004D000CB1D4FEA00614FEA102042BF002010BC44
:1004E000704700EBC35010440029A4BF10BC7047F4
:1004F000401C490008BF20F0010010BC704710B537
:10050000141E73F1000408DA401C41F10001921836
:100510005B411A4301D120F0010010BD2DE9F04DDF
:1005200092469B4611B1B1FA81F202E0B0FA80F234
:100530002032904600F052F804460F4640EA0A0086
:1005400041EA0B0153465A46084313D0114653EA79
:10055000010019D0C8F14002504600F04EF805469F
:100560000E4650465946424600F038F8084305D03A
:10057000012004E020463946BDE8F08D0020054307
:1005800046EAE0762C4337430A986305E40AA0EB79
:1005900008000022FD0A44EA47540A3002D5002030
:1005A0000146E9E7010510196941DDE9084500192F
:1005B0006941BDE8F04DA2E7064C074D06E0E06852
:1005C00040F0010394E8070098471034AC42F6D39A
:1005D000FFF790FDA83D0008C83D0008202A04DB75
:1005E000203A00FA02F1002070479140C2F1200346
:1005F00020FA03F3194390407047202A04DB203A85
:1006000021FA02F00021704721FA02F3D040C2F132
:100610002002914008431946704721B1826842F098
:100620000102826003E0826822F00102826070476A
:1006300000B591B00121084602F0E8FA01214FF41B
:10064000017002F013FB0120ADF8400000208DF88E
:10065000430003208DF8420010A9354802F043F80A
:10066000344801F079FC344800903448019000206F
:10067000029080200390002004908020059040008C
:10068000069080000790202008900002099000202A
:100690000A906946274801F028FD0121254801F00C
:1006A0004FFC00200B908DF8300001208DF83100B8
:1006B0004FF460200D9000200E9001208DF83C003A
:1006C0000BA91D484C3800F06BF84FF4404002F085
:1006D00091FA03230122002117484C3800F088F8D2
:1006E000012115484C3800F02BF8012112484C38F4
:1006F000FFF793FF10484C3800F0D6F800BF0E48C3
:100700004C3800F043F80028F9D10B484C3800F081
:10071000DBF800BF08484C3800F02EF80028F9D16B
:10072000012105484C3800F0C4F811B000BD0000AC
:1007300000080140080002404C240140C80000208D
:1007400021B1826842F48072826003E0826822F400
:1007500080728260704700000020002100BF04E02A
:10076000044A32F811201044491C8029F8DBC011DA
:1007700070470000C8000020014600208A6802F08F
:1007800004020AB1012000E0002070470146002069
:100790008A6802F008020AB1012000E000207047D8
:1007A00030B502460020002350680F4C20400D79E0
:1007B0000C6844EA05242043506090680B4C2040AC
:1007C000D1E902542C434D7944EA4504204390601A
:1007D000D06A20F470000C7C641EE4B2234340EA2B
:1007E0000350D06230BD0000FFFEF0FFFDF7F1FFC7
:1007F000F0B504460D4600200021092D11DDE0680A
:10080000A5F10A0606EB4607072606FA07F1884314
:10081000A5F10A0606EB460603FA06F10843E06076
:100820000CE0206905EB4507072606FA07F1884327
:1008300005EB450603FA06F108432061072A0FDAA3
:10084000606B561E06EB86071F2606FA07F18843E3
:10085000561E06EB860605FA06F10843606322E0A1
:100860000D2A0FDA206BD61F06EB86071F2606FA25
:1008700007F18843D61F06EB860605FA06F1084302
:10088000206310E0E06AA2F10D0606EB86071F2642
:1008900006FA07F18843A2F10D0606EB860605FA73
:1008A00006F10843E062F0BD816841F00801816013
:1008B000704721B1826842F4A002826003E082683E
:1008C00022F4A00282607047816841F004018160D7
:1008D00070470000F0B587B08448007884490978F3
:1008E00090FBF1F201FB120181480078401E814229
:1008F00002D101207F4948707C4800787E49097800
:1009000090FBF1F201FB12017B480078401E81420E
:1009100002D101207749C87274480078401C73499D
:1009200008707448007860B10020724908704FF474
:10093000C87364224FF496710090042000F046FFC3
:10094000D1E06C48407880B100206A4948706B481B
:1009500000780021CDE900106948826800234168D1
:100960006848006800F092FEBDE062488078E8B117
:1009700000206049887002900390049005906248BE
:10098000008900B26049898809B25F4CCDE9001046
:10099000248823B25D4C248922B25C4CA48821B205
:1009A0005A4C248820B200F0B3FD9CE05148407AB4
:1009B00000B300205649088048808880088148811B
:1009C00088814C49487200235148C089504989891F
:1009D000CDE903034E480593029140894C490989AA
:1009E0004B4CCDE90010E388A2886188208800F094
:1009F000DDFC78E03F48C07AA0B100203D49C872D4
:100A0000FFF7AAFE84B20720062105220423CDE9C0
:100A10000032CDE90210032302220121204600F01A
:100A2000E5FA60E03348007B40B1002031490873AB
:100A30004FF4E4717B2000F06FFC54E02D48C07847
:100A400058B300202B49C87032498878FFF7ADFCB5
:100A5000044630494878FFF7A8FC05462D49087838
:100A6000FFF7A3FC06462B4988682B49FFF7E4FBF8
:100A700007462A48C06929498969284A5269CDE947
:100A80000065CDE90242CDE90410254882693B4664
:100A90004169012000F040FB25E016480079E0B1F3
:100AA0000020144908711F48C0691E4989691D4A00
:100AB00052691D4BDB69CDE90232CDE904101A48B9
:100AC000806919494969CDE900101848C3698269EC
:100AD0004169022000F020FB05E00648407910B192
:100AE00000200449487107B0F0BD00003700002025
:100AF00038000020C8010020390000203400002008
:100B00007C020020B8000020280200201C020020E7
:100B100008020020280400200000C842BC02002077
:100B2000F403002058030020C00300208C030020A1
:100B30002DE9FF5F044689464FF0000AD34608E0DE
:100B400014F80B00504400F0FF0A0BF1010000F014
:100B5000FF0BA9F101005845F2DC04EB090010F885
:100B6000010C504501D0BDE8FF9F2078AA2802D192
:100B70006078AF2800D0F6E7A078012811D120795D
:100B8000012801D1BB4908702079022802D1012037
:100B9000B84948702079032803D10120B54908706D
:100BA0004870A078022810D12079012806D1B249D6
:100BB000C870087148718871C87108722079A028BE
:100BC00002D10120AC49087000BFA07810287DD167
:100BD0002579667946EA0520FFF7ECFBA74AA84B82
:100BE000CDE90001FFF766FBCDE90201FFF720FC2C
:100BF000A4494861A579E67946EA0520FFF7DAFBC2
:100C00009E4A9F4BCDE90001FFF754FBCDE902015D
:100C1000FFF70EFC9B498861257A667A46EA052033
:100C2000FFF7C8FB984A994BCDE90001FFF742FB5B
:100C3000CDE90201FFF7FCFB95498860A57AE67AC9
:100C400046EA05200870257B667B46EA052717B132
:100C50000120487002E0FF208D494870A57BE67BAB
:100C600046EA05271FB101208949887002E0FF206C
:100C700087498870257C667C46EA0520FFF79AFB49
:100C80007E4A7F4BCDE90001FFF714FBCDE902015D
:100C9000FFF7CEFB7F494861A57CE67C46EA05204C
:100CA000FFF788FB754A764BCDE90001FFF702FBA1
:100CB000CDE90201FFF7BCFB76498861257D667DA1
:100CC00046EA0520FFF776FB6C4A00E011E06C4B2A
:100CD000CDE90001FFF7EEFACDE90201FFF7A8FB2D
:100CE0006C49C861A078514600F050F901F072FBE0
:100CF00000BFA07811287DD12579667946EA0520C4
:100D0000FFF758FB5D4A5E4BCDE90201FFF7D2FACF
:100D10000746FFF78DFB60494861A579E67946EA09
:100D20000520FFF747FB554A554BCDE90201FFF778
:100D3000C1FA0746FFF77CFB57498861257A667A36
:100D400046EA0520FFF736FB4C4A4D4BCDE9020140
:100D5000FFF7B0FA0746FFF76BFB4F49C861A57A6A
:100D6000E67A46EA0520FFF725FB444A444BCDE9E5
:100D70000201FFF79FFA0746FFF75AFB4749486110
:100D8000257B667B46EA0520FFF714FB3B4A3C4B7C
:100D9000CDE90201FFF78EFA0746FFF749FB3F490D
:100DA0008861A57BE67B46EA0520FFF703FB334A13
:100DB000334BCDE90201FFF77DFA0746FFF738FB19
:100DC0003649C861257C667C46EA0520FFF7F2FAC1
:100DD00007462A4A2A4BFFF76DFACDE90201FFF7D1
:100DE00027FB2F494861A57CE67C46EA0520FFF7F2
:100DF000E1FA00E020E0214A214BCDE90201FFF7B2
:100E000059FA0746FFF714FB25498861257D667D61
:100E100046EA0520FFF7CEFA0746184A184BFFF7B7
:100E200049FACDE90201FFF703FB1D49C861A0782B
:100E3000514600F0ABF800BFA078122803D1A0788B
:100E4000514600F0A3F8A078132803D1A0785146AA
:100E500000F09CF8A078142803D1A078514600F047
:100E600095F8A078152803D1A078514600F08EF8A7
:100E700000BF78E635000020C8010020FCA9F1D2AF
:100E80004D62503FF40300209A9999999999B93F7E
:100E900028040020BC0200208C030020C003002096
:100EA0005803002010B504463448007838B9AA2CFD
:100EB00005D1012031490870314804705DE02F48A8
:100EC0000078012807D1AF2C05D102202B490870EA
:100ED0002B48447051E029480078022807D1F12CB2
:100EE00005DA0320254908702548847045E0234829
:100EF000007803280CD1322C0ADA04201F4908702C
:100F00001F48C4701F48047000201F49087034E057
:100F10001A480078042819D11A480078002815DDED
:100F200018480078401E174908701748007816497D
:100F30000978491C144A1170001D11490C541148BC
:100F40000078D0B905200D49087016E00B480078EC
:100F500005280FD10020094908700B480078001DB2
:100F600007490C5408480078401DC1B20448FFF7F7
:100F7000DFFD02E000200149087010BD3C000020A8
:100F8000880200203A0000203B0000202DE9F041BB
:100F900005460E460027AA200D4908704870EF202C
:100FA00088700220C870084605714671002405E06B
:100FB0000748005D3844C7B2601CC4B2062CF7DB9A
:100FC00003488771072100F005F8BDE8F0810000B3
:100FD000D501002070B504460D462A462146024838
:100FE00002F070FB70BD0000003801407FB50024A6
:100FF00000260025AA222146641C46484254214668
:10100000641C425406222146641C4254002221469C
:10101000641C42549DF801202146641C42549DF8F2
:1010200000202146641C42549DF805202146641C82
:1010300042549DF804202046611CCCB235490A5424
:101040009DF809202046611CCCB232490A549DF813
:1010500008202046611CCCB22E490A549DF80D2070
:101060002046611CCCB22B490A549DF80C20214625
:10107000601CC4B2274842549DF821202046611CC0
:10108000CCB224490A549DF820202046611CCCB2E1
:1010900020490A549DF825202046611CCCB21D49E8
:1010A0000A549DF824202046611CCCB219490A54E8
:1010B0009DF829202046611CCCB216490A549DF89F
:1010C00028202046611CCCB212490A549DF82D20DC
:1010D0002146601CC4B20F4842549DF82C20204683
:1010E000611CCCB20B490A54201FC87005E00948A6
:1010F000405D3044C6B2681CC5B2A542F7DB20464D
:10110000611CCCB203490E5421460248FFF762FF2E
:101110007FBD0000D50100202DE9FE4F06460F4699
:1011200090469946DDF830B00024A2460025AA2258
:101130002146641C764842542146641C425406F100
:101140000F00C2B22146641C71484254002221465D
:10115000641C42546F493846FFF73CF80190FFF792
:101160003AF902909DF809202146641C68484254CF
:101170009DF808202146641C425466494046FFF70A
:1011800029F80190FFF727F902909DF809202146E0
:10119000641C5F4842549DF808202046611CCCB274
:1011A0005B490A545B494846FFF714F80190FFF782
:1011B00012F902909DF809202046611CCCB25449D6
:1011C0000A549DF808202046611CCCB250490A54AC
:1011D00050495846FEF7FEFF4E490090FFF72CF8A5
:1011E0000190FFF7F8F802909DF809202046611C55
:1011F000CCB247490A549DF808202046611CCCB265
:1012000043490A5443490D98FEF7E4FF0190FFF764
:10121000E2F802909DF809202046611CCCB23C49BE
:101220000A549DF808202046611CCCB238490A5463
:1012300038490E98FEF7CEFF0190FFF7CCF80290E8
:101240009DF809202046611CCCB231490A549DF812
:1012500008202046611CCCB22D490A542D490F9814
:10126000FEF7B8FF0190FFF7B6F802909DF809204D
:101270002046611CCCB226490A549DF8082020461D
:10128000611CCCB222490A5422491098FEF7A2FFF1
:101290000190FFF7A0F802909DF809202046611CFC
:1012A000CCB21B490A549DF808202046611CCCB2E0
:1012B00017490A5417491198FEF78CFF0190FFF760
:1012C0008AF802909DF809202046611CCCB2104992
:1012D0000A549DF808202046611CCCB20C490A54DF
:1012E000201FC87006E00A48405D504400F0FF0A25
:1012F000681CC5B2A542F6DB2046611CCCB204498D
:1013000001F800A021460248FFF764FEBDE8FE8F09
:10131000D501002000007A442DE9F84306460F4627
:101320000024A0460025AA222146641C1E484254DF
:101330002146641C425405222146641C425400226A
:101340002146641C425400969DF801202146641CED
:1013500042549DF800202146641C425400979DF899
:1013600001202146641C42549DF800202046611C47
:10137000CCB20D490A54201FC87006E00A48405DEF
:10138000404400F0FF08681CC5B2A542F6DB2046C9
:10139000611CCCB2044901F8008021460248FFF7E5
:1013A00019FEBDE8F8830000D50100207FB50024B8
:1013B00000260025AA222146641C54484254214696
:1013C000641C425403222146641C425400222146DC
:1013D000641C42549DF801202146641C42549DF82F
:1013E00000202146641C42549DF805202146641CBF
:1013F00042549DF804202046611CCCB243490A5453
:101400009DF809202046611CCCB240490A549DF841
:1014100008202046611CCCB23C490A549DF80D209E
:101420002146601CC4B2394842549DF80C20204625
:10143000611CCCB235490A549DF821202046611C1C
:10144000CCB232490A549DF820202046611CCCB20F
:101450002E490A549DF825202046611CCCB22B4908
:101460000A549DF824202046611CCCB227490A5416
:101470009DF829202046611CCCB224490A549DF8CD
:1014800028202046611CCCB220490A549DF82D200A
:101490002046611CCCB21D490A549DF82C202046E0
:1014A000611CCCB219490A549DF831202046611CB8
:1014B000CCB216490A549DF830202146601CC4B2B3
:1014C000124842549DF835202046611CCCB20F4989
:1014D0000A549DF834202046611CCCB20B490A54B2
:1014E000201FC87005E00948405D3044C6B2681C42
:1014F000C5B2A542F7DB2046611CCCB203490E54AD
:1015000021460248FFF766FD7FBD0000D50100209F
:101510002DE9F84F06460F4690469946DDF828B06B
:1015200000240025A246AA222146641C56484254A3
:101530002146641C425402222146641C425400226B
:101540002146641C425400969DF801202146641CEB
:1015500042549DF800202146641C425400979DF897
:1015600001202146641C42549DF800202046611C45
:10157000CCB245490A54CDF800809DF801202046A0
:10158000611CCCB240490A549DF800202046611CE1
:10159000CCB23D490A54CDF800909DF80120204678
:1015A000611CCCB238490A549DF800202046611CC9
:1015B000CCB235490A54CDF800B09DF80120204640
:1015C000611CCCB230490A549DF800202046611CB1
:1015D000CCB22D490A540B9800909DF8012020466A
:1015E000611CCCB228490A549DF800202146601C99
:1015F000C4B2254842540C9800909DF80120204622
:10160000611CCCB220490A549DF800202046611C80
:10161000CCB21D490A540D9800909DF80120204637
:10162000611CCCB218490A549DF800202146601C68
:10163000C4B2154842540E9800909DF801202046EF
:10164000611CCCB210490A549DF800202046611C50
:10165000CCB20D490A54201FC87006E00A48405D0C
:10166000504400F0FF0A681CC5B2A542F6DB2046D4
:10167000611CCCB2044901F800A021460248FFF7E2
:10168000A9FCBDE8F88F0000D50100202DE9FE4F30
:1016900082460E4617469846DDF830B00024A14633
:1016A0000025AA222146641C464842542146641C57
:1016B000425401222146641C425400222146641CEB
:1016C000425441495046FEF785FD0090FEF783FEE7
:1016D00002909DF809202146641C3A4842549DF826
:1016E00008202146641C425437493046FEF772FDFB
:1016F0000090FEF770FE02909DF809202146641CC0
:10170000304842549DF808202146601CC4B22D4840
:1017100042542D493846FEF75DFD0090FEF75BFE12
:1017200002909DF809202046611CCCB225490A543C
:101730009DF808202146601CC4B222484254CDF8CE
:1017400004809DF807202046611CCCB21D490A5434
:101750009DF806202046611CCCB21A490A549DF817
:1017600005202046611CCCB216490A549DF804207D
:101770002046611CCCB213490A542046611CCCB2ED
:10178000104901F800B02146621CD4B20D4A0D98F0
:101790005054201F1146C87006E00A48405D484476
:1017A00000F0FF09681CC5B2A542F6DB2046611CAB
:1017B000CCB2044901F8009021460248FFF70AFC28
:1017C000BDE8FE8FD50100200000C8422DE9FF4191
:1017D0000646002400270025AA222146641C2C4826
:1017E00042542146641C425400222146641C425447
:1017F0002146641C42542146641C46549DF8052031
:101800002146641C42549DF804202146641C425425
:101810009DF809202046611CCCB21D490A549DF850
:1018200008202146601CC4B2194842549DF80D207E
:101830002046611CCCB216490A549DF80C20204663
:10184000611CCCB212490A549DF829202046611C23
:10185000CCB20F490A549DF828202046611CCCB216
:101860000B490A54201FC87005E00948405D384400
:10187000C7B2681CC5B2A542F7DB2046611CCCB2DA
:1018800003490F5421460248FFF7A4FBBDE8FF813E
:10189000D501002000BFFEE7B1F5007F3AD00FDC94
:1018A000202928D006DC01291CD004291DD00829B4
:1018B00040D11DE0402921D0B1F5807F3AD126E00A
:1018C000B1F5004F31D006DCB1F5806F25D0B1F510
:1018D000006F2FD124E0B1F5803F12D0B1F5003F69
:1018E00028D111E0154A826025E00822C26022E07A
:1018F0001022C2601FE0082202611CE01022026177
:1019000019E00822426016E01022426013E004222F
:10191000426010E0042242600DE0042242600AE0CE
:10192000002282610422426005E0002282610422DA
:10193000426000E000BF00BF7047000001010100ED
:1019400000B589B00121480601F070F90121042099
:1019500001F08CF94FF40060ADF8040048208DF8D8
:10196000070003208DF8060001A93B4800F0BBFEEC
:101970004FF48050ADF8040018208DF807000320C4
:101980008DF8060001A9344800F0ADFE13208DF853
:10199000000001208DF8010000208DF802000120D8
:1019A0008DF80300684600F0FFFF14208DF800005A
:1019B00000208DF801008DF8020001208DF8030051
:1019C000684600F0F1FF254800F04AF800208DF845
:1019D0001E008DF81F008DF820008DF821008DF875
:1019E000220001208DF8230000208DF81A008DF8C8
:1019F0001B0004208DF81C0002208DF81D0004201F
:101A0000ADF8180006A9154800F063F900208DF81C
:101A100012008DF8130001208DF814000020ADF89D
:101A20000800ADF80A00ADF80C00ADF80E00ADF8F6
:101A3000100001208DF8150002A800F02DF80122F9
:101A40000221064800F03CF901221146034800F04B
:101A500037F909B000BD00000008014000640040F3
:101A600010B504460B48844209D10121480601F013
:101A7000EDF800214FF0007001F0E8F808E00121D6
:101A8000880601F0E3F800214FF0806001F0DEF8F5
:101A900010BD00000064004010B50021837A0122CF
:101AA00002FA03F13D4A126842F001023B4B1A6010
:101AB0003A4A1C3212688A43384B1C331A60027B44
:101AC000CAB9364A0C3212688A43344B0C331A6056
:101AD0004288C38842EA0343304A4032847A42F85B
:101AE00034300288838842EA03432C4A4032847AA5
:101AF00002EBC4025360027B012A19D1274A0C323F
:101B000012680A43254B0C331A604288038842EA64
:101B10000343224A4032847A42F83430C2888388B0
:101B200042EA03431D4A4032847A02EBC402536006
:101B3000C27A3AB9194A121D12688A43174B1B1D03
:101B40001A6006E0154A121D12680A43134B1B1D4A
:101B50001A60028932B9114A143212688A430F4B53
:101B600014331A600289012A06D10C4A1432126811
:101B70000A430A4B14331A60427B012A06D1074AF2
:101B80001C3212680A43054B1C331A60034A126860
:101B900022F00102014B1A6010BD000000660040F7
:101BA00070B504460D46002660692840002871D0B3
:101BB000B5F5807F5CD010DC082D35D006DC012D1A
:101BC00020D0022D24D0042D72D127E0102D31D049
:101BD000202D35D0402D6BD138E0B5F5004F60D0C9
:101BE00009DCB5F5007F49D0B5F5806F4CD0B5F56F
:101BF000006F5DD14FE0B5F5803F2DD0B5F5003FCA
:101C000056D12FE0A0682D4900F065F9064651E055
:101C1000E068032100F05FF906464BE0E068082128
:101C200000F059F9064645E0E068102100F053F94C
:101C300006463FE02069032100F04DF9064639E0F1
:101C40002069082100F047F9064633E02069102199
:101C500000F041F906462DE06068082100F03BF9EC
:101C6000064627E06068102100F035F9064621E0BD
:101C7000A069012100F02FF906461BE0A0690221AE
:101C800000F029F9064615E0A069042100F023F9C7
:101C900006460FE00FE0A069702100F01CF906462F
:101CA00008E06068042100F016F9064602E0FFE74C
:101CB000002600BF00E00026304670BD0101010093
:101CC0001AB143690B43436102E043698B434361AB
:101CD000704730B5024600200023146824F0020447
:101CE0001460146844F00104146000E05B1C546844
:101CF00004F001041CB94FF6FF74A342F6D15468F6
:101D000004F001040CB900206CE08C79012C04D1A2
:101D1000146844F08004146003E0146824F0800424
:101D20001460CC79012C04D1146844F04004146090
:101D300003E0146824F0400414600C7A012C04D1F0
:101D4000146844F02004146003E0146824F02004B4
:101D500014604C7A012C04D1146844F0100414600F
:101D600003E0146824F0100414608C7A012C04D170
:101D7000146844F00804146003E0146824F00804B4
:101D80001460CC7A012C04D1146844F0040414606B
:101D900003E0146824F0040414608C78A407CD7860
:101DA00044EA05640D7944EA05444D7944EA055452
:101DB0000D886D1E2C43D461146824F00104146056
:101DC000002300E05B1C546804F001041CB14FF6D2
:101DD000FF74A342F6D1546804F001040CB1002052
:101DE00000E0012030BD10B500F5D87303EB0113FE
:101DF0001B6803F004031372137A53B900F5D87308
:101E000003EB01131B6840F2FF7404EA53531360A1
:101E100009E000F5D87303EB01131B686FF0604411
:101E200004EAD303536000F5D87303EB01131B6876
:101E300003F00203537200F5D87303EB01135B68E0
:101E400003F00F03937200F5D87303EB01135B6883
:101E50001B0AD37400F5D87303EB01139B68D3728C
:101E600000F5D87303EB01139B681C0A147300F58B
:101E7000D87303EB01139B681C0C547300F5D873E3
:101E800003EB01139B681B0E937300F5D87303EBF0
:101E90000113DB68D37300F5D87303EB0113DB6820
:101EA0001C0A147400F5D87303EB0113DB681C0CD7
:101EB000547400F5D87303EB0113DB681B0E9374A5
:101EC00021B9C36843F02003C36003E0036943F012
:101ED0002003036110BD0246002002EA01030BB19A
:101EE000012000E00020704710B54FF4003000F0F2
:101EF000DDF8012806D1400400F006F84FF4003068
:101F000000F010F810BD000000F0805111B103493D
:101F1000086001E002494860704700000404024084
:101F20000000024000F0805111B10349086001E057
:101F3000024948607047000004040240000002406B
:101F400021B1026842F00102026004E002684FF62B
:101F5000FE731A400260704701684FF6FE7211402E
:101F600001600021016041608160C1604B4988428D
:101F700008D14A490839496841F00F01474A083AEF
:101F800051608AE045491431884208D143490839F3
:101F9000496841F0F001414A083A51607DE03F490B
:101FA0002831884208D13D490839496841F47061B7
:101FB0003A4A083A516070E038493C31884208D1C9
:101FC00036490839496841F47041344A083A516049
:101FD00063E032495031884208D1304908394968B4
:101FE00041F470212D4A083A516056E02B49643182
:101FF000884208D129490839496841F47001274AC3
:10200000083A516049E025497831884208D123498E
:102010000839496841F07061204A083A51603CE053
:102020001F49884206D1011F096841F00F01021FB4
:10203000116032E01A491431884208D11849091F49
:10204000096841F0F001164A121F116025E0144999
:102050002831884208D11249091F096841F470618A
:102060000F4A121F116018E00D493C31884208D117
:102070000B49091F096841F47041094A121F116098
:102080000BE007495031884207D10549091F09680B
:1020900041F47021024A121F11607047080002408B
:1020A000080402400146486880B27047014600209B
:1020B000002201F0805313B1054B1A6801E0054B73
:1020C0001A6802EA01030BB1012000E0002070470A
:1020D00000040240000002401AB103680B43036091
:1020E00002E003688B430360704710B5002202686A
:1020F00047F6F0739A430C6A8B6823430C692343B9
:102100004C6923438C692343CC6923434C6A2343A2
:102110008C6A23431A430260CB6843600B68836078
:102120004B68C36010BD416070477047034606218D
:1021300006221248018812480288ABB1012B1BD13C
:102140003AB94EF6EE60814201D10020704701207D
:10215000FCE739B94EF6EE60824201D10120F5E785
:102160000020F3E7AB20F1E709B90020EEE70AB958
:102170000120EBE7AB20E9E70020E7E700000108DA
:102180000004010810B504240B4800F02DFA0446A1
:10219000042C01D0204610BD0021074800F064FA4D
:1021A0000446042C01D02046F5E7044800F01CFA50
:1021B00004462046EFE70000000001080004010883
:1021C00010B500F001F810BD10B501F007FC044691
:1021D00000F062FB204610BD2DE9F84F0746894606
:1021E0000425DFF8D8A0364800904FF000080024FE
:1021F00000264FF0000B0020FFF798FF8046B8F153
:10220000010F05D1DFF8B8A02C48401C00900CE06D
:10221000B8F1000F06D1DFF8A4A00AF1010A28489E
:10222000009002E0AB20BDE8F88F4EF6EE6150461C
:1022300000F01AFA0546042D01D02846F3E700F015
:102240002BFB4946384600F011F90646042E01D012
:102250003046E8E700241CE01A4830F81400B84281
:1022600015D0184931F81400174900F083F8834657
:10227000BBF1010F0BD0134931F814001249098842
:1022800000F0F4F80646042E01D03046CBE7601C7F
:1022900084B2392CE0DB009800F0A6F90546042D45
:1022A00001D02846BFE70021504600F0DDF9054681
:1022B000042D01D02846B6E72846B4E7FF030108FD
:1022C00000000108440000202C00002038B52449FB
:1022D0008889694600F04EF8BDF80000FEF765F801
:1022E00004462049FDF7A8FF1F4948611C49C889D9
:1022F000694600F03FF8BDF80000FEF756F80446C6
:102300001A49FDF799FF184988611549088A6946F5
:1023100000F030F8BDF80000FEF747F80446114918
:10232000FDF78AFF124988600D49488A694600F026
:1023300021F8BDF800000E4908700949888A6946ED
:1023400000F018F8BDF80000094948700449C88A2F
:10235000694600F00FF8BDF800000549887038BDE7
:10236000440000200000C842F403002000007A442A
:10237000280400202DE9F04706460F46002545F2C7
:1023800055584FF00109114CA2460020FFF7CEFE30
:102390000546AB2D01D1BDE8F0870C4800EB852A3E
:1023A0000B480068841E0AE0B4F80080B04505D1EF
:1023B00034F8020C38804FF0000904E0241F0AF1C1
:1023C00002008442F0D800BF4846E4E7000001085C
:1023D0003000002070B5204948692049FDF7FAFE19
:1023E0000546FEF711F884B21D498889214600F0A0
:1023F00081F8194988691B49FDF7ECFE0546FEF78F
:1024000003F884B21649C889214600F073F81649CA
:1024100088681249FDF7DEFE0546FDF7F5FF84B238
:102420000F49088A214600F065F80F4804780C49E6
:10243000488A214600F05EF80B4844780849888AAB
:10244000214600F057F8084884780549C88A214693
:1024500000F050F870BD0000F40300200000C842F6
:102460004400002000007A44280400202DE9F041B7
:1024700004460F4604250026DFF86C800120FFF794
:1024800055FE0646AB2E01D1BDE8F081701C174900
:1024900001EB802821E0164800680068401CB8B9AC
:1024A00039461348006800F0DFF80546042D01D0D6
:1024B0002846E9E721460E480068801C00F0D4F861
:1024C00005460B480068001D094908602846DBE7FF
:1024D00007480068001D0649086005480068404537
:1024E000D9D38020D0E70000FF070108FEFF0008D5
:1024F0003000002070B505460E46002431462846BF
:10250000FFF7B4FF0446802C04D131462846FFF77C
:1025100063FE0446204670BD10B54FF4004000F045
:102520000DF818B14FF4004000F002F810BD0000A3
:102530000149086070470000140401400146002072
:102540000022074B1B6803EA0102054B14331B688A
:102550000B4013B10AB1012000E0002070470000D9
:102560000004014008B50121092000F07FFB012192
:10257000022000F05BFB01210D4800F03FF9302004
:10258000ADF8000002208DF8020048208DF803000D
:102590006946084800F0A7F802231A4603210648B6
:1025A00000F09CFE0121044800F088FD08BD0000F9
:1025B00000081A00000C01400004004000200549FA
:1025C0000988A1F5FE40FF3847F6FF71014A1180E6
:1025D000704700002404004047F6FF70014908805E
:1025E000704700002404004030B5044604254FF431
:1025F000302000F065F80546042D17D10C4800691D
:1026000040F002000A49086108464461006940F050
:10261000400008614FF4302000F052F805460448AD
:10262000006941F6FD71084001490861284630BD46
:102630000020024004200B49C96801F0010109B1E2
:1026400001200EE00749C96801F0040109B1022028
:1026500007E00449C96801F0100109B1032000E056
:10266000042070470020024070B504460D46042641
:10267000F00200F025F80646042E11D10948006941
:1026800040F00100074908612580F00200F018F8C9
:1026900006460448006941F6FE7108400149086198
:1026A000304670BD0020024002480349486003489C
:1026B000486070472301674500200240AB89EFCD99
:1026C00000B502460423FFF7B5FF034603E0FFF71A
:1026D000B1FF0346521E012B01D1002AF7D102B9E6
:1026E0000523184600BD2DE9F041024600250026CD
:1026F000002000230024002791F803C00CF00F05F0
:1027000091F803C00CF0100CBCF1000F03D091F84D
:1027100002C04CEA050591F800C0BCF1000F31D0B1
:10272000146800202BE04FF0010C0CFA00F3B1F814
:1027300000C00CEA03069E4220D183004FF00F0C2C
:102740000CFA03F7BC4305FA03FC4CEA040491F8C5
:1027500003C0BCF1280F06D14FF0010C0CFA00FCAD
:10276000C2F814C00AE091F803C0BCF1480F05D1CB
:102770004FF0010C0CFA00FCC2F810C0401C0828F5
:10278000D1D31460B1F800C0BCF1FF0F34DD546840
:1027900000202EE000F1080C4FF0010808FA0CF3BD
:1027A000B1F800C00CEA03069E4221D183004FF02D
:1027B0000F0C0CFA03F7BC4305FA03FC4CEA0404C3
:1027C00091F803C0BCF1280F05D100F1080C08FAFC
:1027D0000CF8C2F8148091F803C0BCF1480F07D17F
:1027E00000F1080C4FF0010808FA0CF8C2F810804C
:1027F000401C0828CED35460BDE8F081F0B50A46ED
:10280000002300240021002500F00046B6F1004F0F
:1028100002D11D4EF16901E01B4E7168C0F3034502
:1028200083B200F44016B6F5401F08D121F0706164
:10283000154E766826F07066134F7E6012E000F445
:102840008016B6F5801F06D1032606FA05F4A143CB
:1028500041F0706106E0460D360103FA06F6B14319
:1028600041F0706122B1460D360103FA06F631439C
:1028700000F00046B6F1004F02D1034EF16101E0D5
:10288000014E7160F0BD00000000014041617047E1
:102890000161704700BFFEE770B5042600240120E7
:1028A000FFF744FC0446AB2C06D1124800EB842011
:1028B00011490860AB2070BD0E4800EB84200E4922
:1028C0000860601C0B49891E01EB80250CE00A485A
:1028D00000680068401C10B904263046EBE7064843
:1028E0000068001D0449086003480068A842EED350
:1028F0008020E0E7000001083000002008B5012139
:10290000042000F0B3F9C020ADF8000010208DF8CD
:10291000030003208DF8020069460648FFF7E3FE36
:1029200040210448FFF7B2FF80210248FFF7AEFFC5
:1029300008BD00000008014000BFFEE710B500F030
:1029400031F900F0F5F810BD10B50446002120461D
:10295000FDF794FD05D210492046FDF7E3FB044640
:1029600009E000212046FDF77FFD04D20A492046F8
:10297000FDF72AFC044609492046FDF77FFD01D2F8
:10298000064C05E006492046FDF76EFD00D2044CDA
:10299000204600F0F7F910BD0000C84200409C45F9
:1029A00000409CC57047000070B5002100230F2235
:1029B000C47804B3154C246804F4E064C4F5E064FE
:1029C000210AC1F10403CA40447804FA03F184786F
:1029D0001440214309010E4C0678A155047804F0F7
:1029E0001F050124AC4005786D11AD0005F1E0250F
:1029F000C5F8004109E0047804F01F050124AC404B
:102A0000044D0678761145F8264070BD0CED00E0C7
:102A100000E400E080E100E002490143024A116065
:102A2000704700000000FA050CED00E02DE9F05FB2
:102A300004460F461546256039462068FDF7C4FB5D
:102A400082462949FDF7C6FB606061682069FDF791
:102A500069FB206161686069FDF7BCFB8146A16983
:102A60002069FDF7B7FB0646D4E90101FDF7ACFB91
:102A70008246E1696069FDF7ADFB83465146FDF78B
:102A8000A9FB80463046E16AFDF7F8FC05D2616893
:102A90002069FDF799FB2061E66A3046216BFDF75E
:102AA000E3FC05D261682069FDF78EFB2061266B8F
:102AB00031464846FDF736FB82464146FDF732FB7C
:102AC0002062D4E90801FDF7D9FC01D2606A2062D6
:102AD000A16A206AFDF7C8FC01D2A06A2062606882
:102AE000A060206ABDE8F09F000020410021016045
:102AF00041608160C16001610749416107498161AD
:102B00000021C161016206494162064981620649AC
:102B1000C16206490163704700001041CDCC8C3F73
:102B200000409C4500409CC500803B4500803BC563
:102B300000B587B00121084600F098F80121084649
:102B400000F074F80020ADF8100041F28830ADF8C4
:102B500014000020ADF81200ADF8160004A94FF0E3
:102B6000804000F085FC6020ADF800000120ADF849
:102B70000200ADF806000020ADF8080069464FF0ED
:102B8000804000F0E7FB69464FF0804000F032FCE7
:102B90000121880700F09EFA0121880700F08EFAD3
:102BA00007B000BD08B50121042000F05FF8022045
:102BB000ADF8000010208DF8030003208DF802000E
:102BC00069460A48FFF78FFD02210848FFF760FEBB
:102BD0000C20ADF8000018208DF8030003208DF8BC
:102BE000020069460148FFF77EFD08BD000801406C
:102BF0007047000001460020034A506820F440401E
:102C000008435060704700000010024029B1064A96
:102C100052690243044B5A6104E0034A52698243F9
:102C2000014B5A61704700000010024029B1064A6A
:102C3000D2690243044BDA6104E0034AD269824359
:102C4000014BDA61704700000010024029B1064ACA
:102C500012690243044B1A6104E0034A1269824379
:102C6000014B1A61704700000010024029B1064A6A
:102C700092690243044B9A6104E0034A92698243D9
:102C8000014B9A61704700000010024029B1064ACA
:102C9000D2680243044BDA6004E0034AD2688243FC
:102CA000014BDA60704700000010024030B500218F
:102CB0000022002400232D4D6D6805F00C0121B188
:102CC000042905D0082923D105E0294D056022E01B
:102CD000274D05601FE0254D6D6805F47012234DEA
:102CE0006D6805F48034022505EB92421CB9214D34
:102CF000554305600BE01D4D6D6805F400351DB1B1
:102D00001C4D5543056002E0194D5543056002E036
:102D1000174D056000BF00BF144D6D6805F0F00150
:102D20000909154D6B5C0568DD4045600F4D6D6808
:102D300005F4E061090A104D6B5C4568DD40856073
:102D40000A4D6D6805F46051C90A0B4D6B5C45680E
:102D5000DD40C560054D6D6805F44041890B074DA8
:102D60006B5CC568B5FBF3F5056130BD0010024032
:102D700000127A0000093D00140000202400002009
:102D80007047000070B5044600212046FDF776FB31
:102D900009D22046FDF738FB4FF08041888700209C
:102DA0000649088009E084F000452846FDF72CFB21
:102DB0000249088000200906888770BD4000004055
:102DC00010B500F001F810BD0CB500200190009086
:102DD0003348006840F480303149086000BF304813
:102DE000006800F4003000900198401C01900098A9
:102DF00018B90198B0F5A06FF1D12948006800F426
:102E0000003010B10120009001E0002000900098F7
:102E1000012843D12348006840F010002149086090
:102E20000846006820F0030008600846006840F08B
:102E3000020008601A48406819494860084640681E
:102E400048600846406840F4806048600846406832
:102E500020F47C1048600846406840F4E810486060
:102E60000846006840F08070086000BF0C480068A9
:102E700000F000700028F9D00948406820F00300F5
:102E8000074948600846406840F00200486000BFBB
:102E90000348406800F00C000828F9D10CBD000080
:102EA00000100240002002402048007801283CD158
:102EB0001F480088401C1E49088008460088B0F55D
:102EC000FA7F01DD0120088000BF01201949087048
:102ED0001749088800EBD0714910A0EB410111B9E6
:102EE000012015490870124800880A2190FBF1F270
:102EF00001FB120010B90120104908700C4800882D
:102F0000642190FBF1F201FB120010B901200C4981
:102F10000870074800884FF4FA7190FBF1F201FB4A
:102F2000120010B90120074908707047C500002041
:102F3000BE000020C0000020C1000020C200002010
:102F4000C3000020C400002010B51348006840F002
:102F500001001149086008464068104908400E49C0
:102F60004860084600680E4908400B49086008465A
:102F7000006820F4802008600846406820F4FE00C5
:102F800048604FF41F008860FFF71AFF4FF00060A1
:102F90000449086010BD0000001002400000FFF866
:102FA000FFFFF6FE08ED00E010B50121044800F037
:102FB000B6F918B10121024800F07DF810BD0000FB
:102FC0000004004070B50121144800F0A8F920B3B6
:102FD0000121124800F06FF8FFF7F0FA0446FDF700
:102FE000DBF90F4908600F494878FDF7DEF905461F
:102FF0000B4801682846FDF7EDF8044609482146CC
:1030000082680948FFF712FD084908600846006811
:1030100080F000442046FFF797FC70BD0008004098
:10302000B800002028040020F40300204000002005
:103030001FB501210846FFF719FE01210420FFF703
:10304000F5FD1A4800F056F84720ADF8040040F2AC
:10305000E730ADF808000020ADF806004FF400702E
:10306000ADF80A0000208DF80C0001A90F4800F00F
:10307000FFF901210D4800F01BF8012211460B4811
:1030800000F05EF94FF4A060FFF7C6FC1E208DF83B
:10309000000000208DF801008DF8020001208DF85D
:1030A00003006846FFF780FC1FBD000000080040D9
:1030B000CA4302827047CA430282704721B1028824
:1030C00042F00102028004E002884FF6FE731A40CB
:1030D0000280704731B1B0F8442042F40042A0F8B9
:1030E000442005E0B0F84420C2F30E02A0F84420CA
:1030F0007047000010B504466848844208D1012199
:10310000C014FFF7C3FD0021E014FFF7BFFDC4E0CA
:10311000B4F1804F08D101210846FFF797FD002147
:103120000120FFF793FDB8E05D48844208D10121FA
:103130000220FFF78BFD00210220FFF787FDACE0A6
:103140005848844208D101210420FFF77FFD002167
:103150000420FFF77BFDA0E05348844208D1012101
:103160000820FFF773FD00210820FFF76FFD94E0B2
:103170004E48844208D101211020FFF767FD00214D
:103180001020FFF763FD88E04948844208D10121FF
:103190002020FFF75BFD00212020FFF757FD7CE09A
:1031A0004448844208D101214014FFF76FFD0021FB
:1031B0006014FFF76BFD70E03F48844209D10121A4
:1031C000C804FFF763FD00214FF40020FFF75EFD08
:1031D00063E03A48844209D101210805FFF756FD12
:1031E00000214FF48010FFF751FD56E0344884422F
:1031F00009D101214805FFF749FD00214FF40010D6
:10320000FFF744FD49E02F48844208D101214020C6
:10321000FFF71CFD00214020FFF718FD3DE02A4884
:10322000844208D101218020FFF710FD0021802079
:10323000FFF70CFD31E02548844208D101218015BB
:10324000FFF704FD0021A015FFF700FD25E0204851
:10325000844209D101210804FFF718FD00214FF431
:103260008030FFF713FD18E01A48844209D101218C
:103270004804FFF70BFD00214FF40030FFF706FD77
:103280000BE01548844208D101218804FFF7FEFCB9
:1032900000214FF48020FFF7F9FC10BD002C014005
:1032A0000004004000080040000C004000100040F6
:1032B0000014004000340140004C01400050014027
:1032C0000054014000180040001C00400020004055
:1032D000004001400044014000480140F0B50C4668
:1032E00015461E460021002200230189028B038C13
:1032F0004FF6F877394021434FF6FC473A4040F209
:1033000001173A434FF6DD773B404FF6FF7707EA68
:1033100006172F433B43018102830384F0BD30B580
:103320000246002000230024158A05EA010395893E
:1033300005EA010413B10CB1012000E0002030BD0A
:103340001AB183890B43838102E083898B43838194
:103350007047000070B5002400220023058C4FF652
:10336000FF6635400584028C8388848B4FF68F7509
:103370002C404FF6FC752C400D882C434FF6FF5522
:103380002A400D894FF6FF7606EA05252A434D8827
:1033900006EA05252A43154DA84202D0144DA8423D
:1033A0001DD14FF2FF752A404D894FF6FF7606EA90
:1033B00005252A434FF6FF352A408D8806EA052564
:1033C0002A434EF6FF752B404DF6FF752B408D8935
:1033D00006EA05152B43CD8906EA05152B438380A4
:1033E0008483CD888587028470BD0000002C014055
:1033F0000034014070B5002200230024058C4EF6F5
:10340000FF7635400584038C8488828B48F6FF75EF
:103410002A404FF6FF452A400D884FF6FF7606EA10
:1034200005252A434DF6FF752B400D8906EA053523
:103430002B434D8806EA05352B430B4DA84202D09D
:103440000A4DA84208D14BF6FF752C408D894FF6E6
:10345000FF7606EA85152C4384808283CD88A0F808
:103460004050038470BD0000002C01400034014036
:10347000002202881D4B98420ED01D4B98420BD063
:10348000B0F1804F08D01B4B984205D01A4B9842A0
:1034900002D01A4B984204D14FF68F731A404B88D2
:1034A0001A43174B984207D0164B984204D04FF658
:1034B000FF431A40CB881A4302808B8883850B8890
:1034C00003850A4B98420BD0094B984208D00E4B0B
:1034D000984205D00D4B984202D00D4B984201D135
:1034E0000B7A03860123838270470000002C014081
:1034F000003401400004004000080040000C00407F
:103500000010004000140040004001400044014011
:103510000048014000B591B001210420FFF7A6FB4F
:1035200001218803FFF7A2FB01210846FFF76EFB8C
:103530004FF48060ADF8300004208DF833000CA902
:103540004048FFF7D0F84FF40070ADF83000182075
:103550008DF8330003208DF832000CA93948FFF7AD
:10356000C2F8394800F0DEF84FF4E1300D90002049
:10357000ADF83800ADF83A00ADF83C000C20ADF8DD
:103580003E000020ADF840000DA92F4800F074F96E
:10359000012240F224412C4800F049F9002240F277
:1035A0002551294800F043F901224021264800F026
:1035B000AFF80121244800F09FF82348001D009037
:1035C0002248019000200290802003900020049067
:1035D00080200590002006900790202008904FF44E
:1035E0004050099000200A9069461948FEF77DFD79
:1035F000012202211648FEF76FFD4FF4A060FFF78D
:103600000BFA0F208DF82C0001208DF82D008DF87D
:103610002E008DF82F000BA8FFF7C6F925208DF896
:103620002C0002208DF82D0001208DF82E008DF841
:103630002F000BA8FFF7B8F901210548FEF780FC21
:1036400011B000BD000801400038014038040020DE
:103650005800024070B5002540F22441154800F0A2
:10366000BCF828B300211448FFF728FD114805884D
:10367000001D058800211148FEF762FC0F48FEF787
:1036800011FDC0F18005002404E00D49085DFDF73F
:1036900009FC641CAC42F8D380210848FEF743FDC6
:1036A00001210648FEF74CFC01210348FFF706FD07
:1036B00000BF70BD003801400008004058000240C3
:1036C000380400202DE9F04107460C461546002637
:1036D00000BF0DE02178384600F03AF900BF4021E4
:1036E000384600F06DF80028F9D0641C701CC6B292
:1036F000AE42EFDBBDE8F08121B1828942F4005295
:10370000828104E082894DF6FF731A4082817047FE
:103710001AB1838A0B43838202E0838A8B438382BC
:103720007047000010B504462048844209D10121A9
:103730008803FFF7ABFA00214FF48040FFF7A6FAA9
:1037400032E01B48844209D101214804FFF77EFA88
:1037500000214FF40030FFF779FA25E01548844244
:1037600009D101218804FFF771FA00214FF480206C
:10377000FFF76CFA18E01048844209D10121C8040F
:10378000FFF764FA00214FF40020FFF75FFA0BE027
:103790000A48844208D101210805FFF757FA0021A1
:1037A0004FF48010FFF752FA10BD000000380140BE
:1037B0000044004000480040004C004000500040E1
:1037C00002460020B1F5007F00D100BF13880B40F6
:1037D0000BB1012000E00020704770B502460024C4
:1037E00000230025002040F66A16B14200D100BF38
:1037F000C1F3421501F01F03012606FA03F3012D60
:1038000002D19689334006E0022D02D1168A334058
:1038100001E0968A33400C12012606FA04F4168859
:10382000344013B10CB1012000E0002070BDF0B5B0
:103830000346002400260025002040F66A17B942FE
:1038400000D100BF1846C1F3421401F01F06012742
:1038500007FA06F5012C01D10C3004E0022C01D14D
:10386000103000E014301AB107682F43076002E0FF
:103870000768AF430760F0BD2DE9F04786B0054605
:103880000E460024A24600BFA1460027B08900B121
:1038900000BF2F462C8A4CF6FF700440F08804438A
:1038A0002C82AC894EF6F3100440B088318908436D
:1038B000718908430443AC81AC8A4FF6FF40044051
:1038C000B0890443AC8201A8FFF7F0F91F48874292
:1038D00002D1DDF810A001E0DDF80CA0A88900F409
:1038E000004040B10AEBCA0000EB0A103168490001
:1038F000B0FBF1F807E00AEBCA0000EB0A103168F0
:103900008900B0FBF1F86420B8FBF0F00401200955
:10391000642101FB1089A88900F4004040B13220E5
:1039200000EBC900B0FBF1F000F00700044308E031
:10393000322000EB09106421B0FBF1F000F00F0021
:1039400004432C8106B0BDE8F08700000038014038
:10395000C1F308028280704710B501210548FEF7C7
:103960001FF930B101210348FDF796FF01200249FC
:10397000087010BD006400402A0000202DE9F041CD
:1039800086B002211248FEF70BF9F0B1022110486F
:10399000FDF782FF01AA00210D48FEF724FA0198E5
:1039A00000F00F080198C0F303140A480078A04201
:1039B0000BD19DF811509DF8126046EA052007B220
:1039C0003846FCF7E9FC0349886006B0BDE8F081A1
:1039D000006400402804002000BFFEE72DE9F04706
:1039E0004FF0060A062600250027A8464FF0FF39AB
:1039F0007448B0F800A0744806885FEA0A0075D0E1
:103A0000A0F56E40EE3858B3A0F588501138002864
:103A10006DD146B96B48FEF7E7FD0446042C1ED075
:103A20002046BDE8F0874EF6EE60864210D165482C
:103A3000FEF7DAFD0446042C01D02046F1E7002110
:103A40006148FEF711FE0446042C08D02046E8E742
:103A5000FEF798FB0446042C01D02046E1E7AEE0D7
:103A60007EBB002522E05748C088584931F8151020
:103A7000884201D10FFA85F94D4515D0534931F8E7
:103A800015005349FEF776FC8046B8F1010F0BD0C4
:103A90004E4931F815004E490988FEF7E7FC074604
:103AA000042F01D03846BCE7681C85B2392DDADB1B
:103AB00000214448FEF7D8FD0446042C02D02046DD
:103AC000AFE707E04048FEF78FFD0446042C1FD007
:103AD0002046A6E74FF6FF70864212D13A48FEF71D
:103AE00083FD0446042C03D020469AE711E05EE0F3
:103AF00000213448FEF7B8FD0446042C08D02046C7
:103B00008FE7FEF73FFB0446042C01D0204688E7F0
:103B100055E036B9FEF736FB0446042C46D0204665
:103B20007FE74FF6FF70864207D12748FEF75CFD1E
:103B30000446042C3AD0204673E7002523E02248AF
:103B4000801D0088214931F81510884201D10FFAF3
:103B500085F94D4515D01D4931F815001C49FEF772
:103B600009FC8046B8F1010F0BD0184931F8150057
:103B700017490988FEF77AFC0746042F01D038461A
:103B80004FE7681C85B2392DD9DB00210E48FEF7BE
:103B90006BFD0446042C01D0204642E70948FEF79D
:103BA00023FD0446042C01D020463AE707E0FEF747
:103BB000E9FA0446042C01D0204632E700BF00BFDA
:103BC00004202EE700000108000401084400002042
:103BD0002C00002002E008C8121F08C1002AFAD1F8
:103BE00070477047002001E001C1121F002AFBD17D
:103BF000704710B5002107E042F63C0200BF1300F9
:103C0000A2F10102FBD1491C8142F5D310BD000095
:103C1000464800684FF47A72B0FBF2F1B1F1807F50
:103C200001D301201DE021F07F40401E4FF0E02233
:103C3000506150170F22002807DA13071D0E3C4B66
:103C400000F00F04241F1D5503E013071C0E394B11
:103C50001C5400BF00204FF0E0229061072010614B
:103C6000002008B100BFFEE700F078F8FEF71CFD69
:103C7000FEF7A6FAFEF72AFBFEF740FEFEF772FCFF
:103C8000FEF7AAFCFEF73AFEFEF758FEFFF7D0F962
:103C9000FDF756FEFCF7CCFCFFF73CFCFDF750FEB1
:103CA0000120254908704FF47A70FFF7A2FF012127
:103CB0002248FFF703FA38E02148007820B10020BD
:103CC0001F490870FCF706FE1E48007810B100205E
:103CD0001C4908701C48007810B100201A4908706F
:103CE0001A48007830B1002018490870402118485F
:103CF000FEF7CCFD17480078B8B117480078401C93
:103D000015490870087800EBD0714910A0EB41010B
:103D100021B180210E48FEF7B9FD03E080210C4857
:103D2000FEF7B6FD00200B490870C5E70000002033
:103D300018ED00E000E400E0C500002000080040AD
:103D4000C0000020C1000020C2000020C3000020ED
:103D500000080140C4000020BC00002000B50B4852
:103D6000FEF7C4FE0A48FEF7C1FE0A48FEF7BEFE93
:103D70000948FEF7BBFE0948FEF7B8FE0848FEF703
:103D8000B5FE0848FEF7B2FE00BD0000BC020020F0
:103D9000F002002024030020580300208C030020A0
:103DA000C0030020F4030020C83D000800000020EC
:103DB000C8000000D43B0008903E0008C800002066
:103DC000F0070000E43B000800A24A0400000000E5
:103DD00000000000010203040607080900000000BB
:103DE000010203040102030406070809020406088D
:103DF00000000000000000000000000000000000C3
:103E00000F140000000000000000000000AA01AA3A
:103E100002AA03AA04AA05AA06AA07AA08AA09AA26
:103E20000AAA0BAA0CAA0DAA0EAA0FAA10AA11AAD6
:103E300012AA13AA14AA15AA16AA17AA18AA19AA86
:103E40001AAA1BAA1CAA1DAA1EAA1FAA20AA21AA36
:103E500022AA23AA24AA25AA26AA27AA28AA29AAE6
:103E60002AAA2BAA2CAA2DAA2EAA2FAA30AA31AA96
:103E700032AA33AA34AA35AA36AA37AA38AA000029
:103E80000000000000000000000000000000000032
:04000005080000ED02
:00000001FF
